{
  "_format": "hh-sol-artifact-1",
  "contractName": "DriveFaucet",
  "sourceName": "contracts/DriveFaucet.sol",
  "abi": [
    {
      "inputs": [
        {
          "internalType": "address",
          "name": "_tokenAddress",
          "type": "address"
        },
        {
          "internalType": "uint256",
          "name": "_claimAmount",
          "type": "uint256"
        },
        {
          "internalType": "uint256",
          "name": "_cooldownTime",
          "type": "uint256"
        }
      ],
      "stateMutability": "nonpayable",
      "type": "constructor"
    },
    {
      "inputs": [
        {
          "internalType": "address",
          "name": "owner",
          "type": "address"
        }
      ],
      "name": "OwnableInvalidOwner",
      "type": "error"
    },
    {
      "inputs": [
        {
          "internalType": "address",
          "name": "account",
          "type": "address"
        }
      ],
      "name": "OwnableUnauthorizedAccount",
      "type": "error"
    },
    {
      "anonymous": false,
      "inputs": [
        {
          "indexed": false,
          "internalType": "uint256",
          "name": "newAmount",
          "type": "uint256"
        }
      ],
      "name": "ClaimAmountUpdated",
      "type": "event"
    },
    {
      "anonymous": false,
      "inputs": [
        {
          "indexed": false,
          "internalType": "uint256",
          "name": "newTime",
          "type": "uint256"
        }
      ],
      "name": "CooldownTimeUpdated",
      "type": "event"
    },
    {
      "anonymous": false,
      "inputs": [
        {
          "indexed": true,
          "internalType": "address",
          "name": "owner",
          "type": "address"
        },
        {
          "indexed": false,
          "internalType": "uint256",
          "name": "amount",
          "type": "uint256"
        }
      ],
      "name": "FaucetDrained",
      "type": "event"
    },
    {
      "anonymous": false,
      "inputs": [
        {
          "indexed": true,
          "internalType": "address",
          "name": "previousOwner",
          "type": "address"
        },
        {
          "indexed": true,
          "internalType": "address",
          "name": "newOwner",
          "type": "address"
        }
      ],
      "name": "OwnershipTransferred",
      "type": "event"
    },
    {
      "anonymous": false,
      "inputs": [
        {
          "indexed": true,
          "internalType": "address",
          "name": "to",
          "type": "address"
        },
        {
          "indexed": false,
          "internalType": "uint256",
          "name": "amount",
          "type": "uint256"
        }
      ],
      "name": "TokensDispensed",
      "type": "event"
    },
    {
      "inputs": [],
      "name": "claimAmount",
      "outputs": [
        {
          "internalType": "uint256",
          "name": "",
          "type": "uint256"
        }
      ],
      "stateMutability": "view",
      "type": "function"
    },
    {
      "inputs": [],
      "name": "cooldownTime",
      "outputs": [
        {
          "internalType": "uint256",
          "name": "",
          "type": "uint256"
        }
      ],
      "stateMutability": "view",
      "type": "function"
    },
    {
      "inputs": [],
      "name": "drain",
      "outputs": [],
      "stateMutability": "nonpayable",
      "type": "function"
    },
    {
      "inputs": [],
      "name": "driveToken",
      "outputs": [
        {
          "internalType": "contract IERC20",
          "name": "",
          "type": "address"
        }
      ],
      "stateMutability": "view",
      "type": "function"
    },
    {
      "inputs": [
        {
          "internalType": "address",
          "name": "",
          "type": "address"
        }
      ],
      "name": "nextClaimTime",
      "outputs": [
        {
          "internalType": "uint256",
          "name": "",
          "type": "uint256"
        }
      ],
      "stateMutability": "view",
      "type": "function"
    },
    {
      "inputs": [],
      "name": "owner",
      "outputs": [
        {
          "internalType": "address",
          "name": "",
          "type": "address"
        }
      ],
      "stateMutability": "view",
      "type": "function"
    },
    {
      "inputs": [],
      "name": "renounceOwnership",
      "outputs": [],
      "stateMutability": "nonpayable",
      "type": "function"
    },
    {
      "inputs": [],
      "name": "requestTokens",
      "outputs": [],
      "stateMutability": "nonpayable",
      "type": "function"
    },
    {
      "inputs": [
        {
          "internalType": "uint256",
          "name": "_newAmount",
          "type": "uint256"
        }
      ],
      "name": "setClaimAmount",
      "outputs": [],
      "stateMutability": "nonpayable",
      "type": "function"
    },
    {
      "inputs": [
        {
          "internalType": "uint256",
          "name": "_newTime",
          "type": "uint256"
        }
      ],
      "name": "setCooldownTime",
      "outputs": [],
      "stateMutability": "nonpayable",
      "type": "function"
    },
    {
      "inputs": [
        {
          "internalType": "address",
          "name": "newOwner",
          "type": "address"
        }
      ],
      "name": "transferOwnership",
      "outputs": [],
      "stateMutability": "nonpayable",
      "type": "function"
    }
  ],
  "bytecode": "0x608060405234801561000f575f80fd5b506040516108e13803806108e183398101604081905261002e9161012f565b338061005457604051631e4fbdf760e01b81525f60048201526024015b60405180910390fd5b61005d816100e0565b506001600160a01b0383166100b45760405162461bcd60e51b815260206004820152601560248201527f496e76616c696420746f6b656e20616464726573730000000000000000000000604482015260640161004b565b600180546001600160a01b0319166001600160a01b03949094169390931790925560025560035561016e565b5f80546001600160a01b038381166001600160a01b0319831681178455604051919092169283917f8be0079c531659141344cd1fd0a4f28419497f9722a3daafe3b4186f6b6457e09190a35050565b5f805f60608486031215610141575f80fd5b83516001600160a01b0381168114610157575f80fd5b602085015160409095015190969495509392505050565b6107668061017b5f395ff3fe608060405234801561000f575f80fd5b50600436106100a6575f3560e01c8063830953ab1161006e578063830953ab1461012c5780638da5cb5b146101355780639890220b14610145578063b1c7ef0c1461014d578063b319c6b714610160578063f2fde38b14610169575f80fd5b80632904dc19146100aa578063359cf2b7146100da5780636ff73201146100e457806370f23da7146100f7578063715018a614610124575b5f80fd5b6001546100bd906001600160a01b031681565b6040516001600160a01b0390911681526020015b60405180910390f35b6100e261017c565b005b6100e26100f2366004610691565b6103ac565b6101166101053660046106a8565b60046020525f908152604090205481565b6040519081526020016100d1565b6100e26103f0565b61011660025481565b5f546001600160a01b03166100bd565b6100e2610403565b6100e261015b366004610691565b61059c565b61011660035481565b6100e26101773660046106a8565b6105d9565b335f908152600460205260409020544210156101df5760405162461bcd60e51b815260206004820152601f60248201527f436f6f6c646f776e20706572696f6420686173206e6f7420656c61707365640060448201526064015b60405180910390fd5b6002546001546040516370a0823160e01b81523060048201526001600160a01b03909116906370a0823190602401602060405180830381865afa158015610228573d5f803e3d5ffd5b505050506040513d601f19601f8201168201806040525081019061024c91906106d5565b101561029a5760405162461bcd60e51b815260206004820152601d60248201527f4661756365742068617320696e73756666696369656e742066756e647300000060448201526064016101d6565b6003546102a790426106ec565b335f8181526004602081905260409182902093909355600154600254915163a9059cbb60e01b81529384019290925260248301526001600160a01b03169063a9059cbb906044016020604051808303815f875af115801561030a573d5f803e3d5ffd5b505050506040513d601f19601f8201168201806040525081019061032e9190610711565b6103725760405162461bcd60e51b8152602060048201526015602482015274151bdad95b881d1c985b9cd9995c8819985a5b1959605a1b60448201526064016101d6565b60025460405190815233907f1746eddb7d6a8aeb41880132d25f30f109b978297bb7bea346105e28836704ba9060200160405180910390a2565b6103b4610616565b60038190556040518181527fc4d978175d3c07d16372ccefaf0cd6282f07b3b93c73c51ca598d816838b623b906020015b60405180910390a150565b6103f8610616565b6104015f610642565b565b61040b610616565b6001546040516370a0823160e01b81523060048201525f916001600160a01b0316906370a0823190602401602060405180830381865afa158015610451573d5f803e3d5ffd5b505050506040513d601f19601f8201168201806040525081019061047591906106d5565b6001549091506001600160a01b031663a9059cbb61049a5f546001600160a01b031690565b6040516001600160e01b031960e084901b1681526001600160a01b039091166004820152602481018490526044016020604051808303815f875af11580156104e4573d5f803e3d5ffd5b505050506040513d601f19601f820116820180604052508101906105089190610711565b61054c5760405162461bcd60e51b8152602060048201526015602482015274151bdad95b881d1c985b9cd9995c8819985a5b1959605a1b60448201526064016101d6565b5f546001600160a01b03166001600160a01b03167f58b0a3f82c9b7cc1e3147e1d85a196411c2b6dc1c29e1f5b36b986ce228091158260405161059191815260200190565b60405180910390a250565b6105a4610616565b60028190556040518181527f6a856539d0c38e2d0062c02baf02b3d784e9de37335f10d75d5ed7e606c70456906020016103e5565b6105e1610616565b6001600160a01b03811661060a57604051631e4fbdf760e01b81525f60048201526024016101d6565b61061381610642565b50565b5f546001600160a01b031633146104015760405163118cdaa760e01b81523360048201526024016101d6565b5f80546001600160a01b038381166001600160a01b0319831681178455604051919092169283917f8be0079c531659141344cd1fd0a4f28419497f9722a3daafe3b4186f6b6457e09190a35050565b5f602082840312156106a1575f80fd5b5035919050565b5f602082840312156106b8575f80fd5b81356001600160a01b03811681146106ce575f80fd5b9392505050565b5f602082840312156106e5575f80fd5b5051919050565b8082018082111561070b57634e487b7160e01b5f52601160045260245ffd5b92915050565b5f60208284031215610721575f80fd5b815180151581146106ce575f80fdfea264697066735822122072c7d394d8cf097b0185728b13802cd69adbe57494b4aa13a6918f6300db602c64736f6c63430008180033",
  "linkReferences": {},
  "deployedLinkReferences": {}
}