{
  "_format": "hh-sol-artifact-1",
  "contractName": "UploadUpgradeableV7",
  "sourceName": "contracts/UploadUpgradeableV7.sol",
  "abi": [
    {
      "inputs": [],
      "stateMutability": "nonpayable",
      "type": "constructor"
    },
    {
      "inputs": [
        {
          "internalType": "address",
          "name": "target",
          "type": "address"
        }
      ],
      "name": "AddressEmptyCode",
      "type": "error"
    },
    {
      "inputs": [],
      "name": "ECDSAInvalidSignature",
      "type": "error"
    },
    {
      "inputs": [
        {
          "internalType": "uint256",
          "name": "length",
          "type": "uint256"
        }
      ],
      "name": "ECDSAInvalidSignatureLength",
      "type": "error"
    },
    {
      "inputs": [
        {
          "internalType": "bytes32",
          "name": "s",
          "type": "bytes32"
        }
      ],
      "name": "ECDSAInvalidSignatureS",
      "type": "error"
    },
    {
      "inputs": [
        {
          "internalType": "address",
          "name": "implementation",
          "type": "address"
        }
      ],
      "name": "ERC1967InvalidImplementation",
      "type": "error"
    },
    {
      "inputs": [],
      "name": "ERC1967NonPayable",
      "type": "error"
    },
    {
      "inputs": [],
      "name": "FailedCall",
      "type": "error"
    },
    {
      "inputs": [],
      "name": "InvalidInitialization",
      "type": "error"
    },
    {
      "inputs": [],
      "name": "NotInitializing",
      "type": "error"
    },
    {
      "inputs": [
        {
          "internalType": "address",
          "name": "owner",
          "type": "address"
        }
      ],
      "name": "OwnableInvalidOwner",
      "type": "error"
    },
    {
      "inputs": [
        {
          "internalType": "address",
          "name": "account",
          "type": "address"
        }
      ],
      "name": "OwnableUnauthorizedAccount",
      "type": "error"
    },
    {
      "inputs": [],
      "name": "UUPSUnauthorizedCallContext",
      "type": "error"
    },
    {
      "inputs": [
        {
          "internalType": "bytes32",
          "name": "slot",
          "type": "bytes32"
        }
      ],
      "name": "UUPSUnsupportedProxiableUUID",
      "type": "error"
    },
    {
      "anonymous": false,
      "inputs": [
        {
          "indexed": true,
          "internalType": "address",
          "name": "owner",
          "type": "address"
        },
        {
          "indexed": true,
          "internalType": "address",
          "name": "user",
          "type": "address"
        },
        {
          "indexed": false,
          "internalType": "uint256",
          "name": "durationInMinutes",
          "type": "uint256"
        }
      ],
      "name": "AccessGranted",
      "type": "event"
    },
    {
      "anonymous": false,
      "inputs": [
        {
          "indexed": true,
          "internalType": "address",
          "name": "owner",
          "type": "address"
        },
        {
          "indexed": true,
          "internalType": "address",
          "name": "user",
          "type": "address"
        }
      ],
      "name": "AccessRevoked",
      "type": "event"
    },
    {
      "anonymous": false,
      "inputs": [
        {
          "indexed": true,
          "internalType": "address",
          "name": "user",
          "type": "address"
        },
        {
          "indexed": true,
          "internalType": "address",
          "name": "sender",
          "type": "address"
        },
        {
          "indexed": false,
          "internalType": "string",
          "name": "url",
          "type": "string"
        },
        {
          "indexed": false,
          "internalType": "string",
          "name": "category",
          "type": "string"
        }
      ],
      "name": "FileAdded",
      "type": "event"
    },
    {
      "anonymous": false,
      "inputs": [
        {
          "indexed": true,
          "internalType": "address",
          "name": "user",
          "type": "address"
        },
        {
          "indexed": false,
          "internalType": "string",
          "name": "url",
          "type": "string"
        }
      ],
      "name": "FileDeleted",
      "type": "event"
    },
    {
      "anonymous": false,
      "inputs": [
        {
          "indexed": true,
          "internalType": "address",
          "name": "signer",
          "type": "address"
        },
        {
          "indexed": false,
          "internalType": "string",
          "name": "url",
          "type": "string"
        },
        {
          "indexed": false,
          "internalType": "bytes32",
          "name": "fileHash",
          "type": "bytes32"
        }
      ],
      "name": "FileSigned",
      "type": "event"
    },
    {
      "anonymous": false,
      "inputs": [
        {
          "indexed": true,
          "internalType": "address",
          "name": "user",
          "type": "address"
        },
        {
          "indexed": false,
          "internalType": "string",
          "name": "oldUrl",
          "type": "string"
        },
        {
          "indexed": false,
          "internalType": "string",
          "name": "newUrl",
          "type": "string"
        }
      ],
      "name": "FileUpdated",
      "type": "event"
    },
    {
      "anonymous": false,
      "inputs": [
        {
          "indexed": false,
          "internalType": "uint64",
          "name": "version",
          "type": "uint64"
        }
      ],
      "name": "Initialized",
      "type": "event"
    },
    {
      "anonymous": false,
      "inputs": [
        {
          "indexed": true,
          "internalType": "address",
          "name": "previousOwner",
          "type": "address"
        },
        {
          "indexed": true,
          "internalType": "address",
          "name": "newOwner",
          "type": "address"
        }
      ],
      "name": "OwnershipTransferred",
      "type": "event"
    },
    {
      "anonymous": false,
      "inputs": [
        {
          "indexed": true,
          "internalType": "address",
          "name": "user",
          "type": "address"
        },
        {
          "indexed": false,
          "internalType": "string",
          "name": "publicKey",
          "type": "string"
        }
      ],
      "name": "PublicKeyPublished",
      "type": "event"
    },
    {
      "anonymous": false,
      "inputs": [
        {
          "indexed": true,
          "internalType": "address",
          "name": "implementation",
          "type": "address"
        }
      ],
      "name": "Upgraded",
      "type": "event"
    },
    {
      "inputs": [],
      "name": "UPGRADE_INTERFACE_VERSION",
      "outputs": [
        {
          "internalType": "string",
          "name": "",
          "type": "string"
        }
      ],
      "stateMutability": "view",
      "type": "function"
    },
    {
      "inputs": [
        {
          "internalType": "address",
          "name": "",
          "type": "address"
        },
        {
          "internalType": "address",
          "name": "",
          "type": "address"
        }
      ],
      "name": "accessExpiry",
      "outputs": [
        {
          "internalType": "uint256",
          "name": "",
          "type": "uint256"
        }
      ],
      "stateMutability": "view",
      "type": "function"
    },
    {
      "inputs": [
        {
          "internalType": "string",
          "name": "url",
          "type": "string"
        },
        {
          "internalType": "string",
          "name": "category",
          "type": "string"
        }
      ],
      "name": "add",
      "outputs": [],
      "stateMutability": "nonpayable",
      "type": "function"
    },
    {
      "inputs": [
        {
          "internalType": "string[]",
          "name": "urls",
          "type": "string[]"
        },
        {
          "internalType": "string",
          "name": "category",
          "type": "string"
        }
      ],
      "name": "addBatch",
      "outputs": [],
      "stateMutability": "nonpayable",
      "type": "function"
    },
    {
      "inputs": [
        {
          "internalType": "string",
          "name": "url",
          "type": "string"
        },
        {
          "internalType": "string",
          "name": "category",
          "type": "string"
        },
        {
          "internalType": "bytes32",
          "name": "fileHash",
          "type": "bytes32"
        },
        {
          "internalType": "bytes",
          "name": "signature",
          "type": "bytes"
        },
        {
          "internalType": "string",
          "name": "encryptedKey",
          "type": "string"
        }
      ],
      "name": "addWithE2EE",
      "outputs": [],
      "stateMutability": "nonpayable",
      "type": "function"
    },
    {
      "inputs": [
        {
          "internalType": "string",
          "name": "url",
          "type": "string"
        },
        {
          "internalType": "string",
          "name": "category",
          "type": "string"
        },
        {
          "internalType": "bytes32",
          "name": "fileHash",
          "type": "bytes32"
        },
        {
          "internalType": "bytes",
          "name": "signature",
          "type": "bytes"
        }
      ],
      "name": "addWithSignature",
      "outputs": [],
      "stateMutability": "nonpayable",
      "type": "function"
    },
    {
      "inputs": [
        {
          "internalType": "address",
          "name": "user",
          "type": "address"
        },
        {
          "internalType": "uint256",
          "name": "durationInMinutes",
          "type": "uint256"
        }
      ],
      "name": "allow",
      "outputs": [],
      "stateMutability": "nonpayable",
      "type": "function"
    },
    {
      "inputs": [
        {
          "internalType": "string",
          "name": "url",
          "type": "string"
        }
      ],
      "name": "deleteFile",
      "outputs": [],
      "stateMutability": "nonpayable",
      "type": "function"
    },
    {
      "inputs": [
        {
          "internalType": "address",
          "name": "user",
          "type": "address"
        }
      ],
      "name": "disallow",
      "outputs": [],
      "stateMutability": "nonpayable",
      "type": "function"
    },
    {
      "inputs": [
        {
          "internalType": "address",
          "name": "_user",
          "type": "address"
        }
      ],
      "name": "display",
      "outputs": [
        {
          "components": [
            {
              "internalType": "string",
              "name": "url",
              "type": "string"
            },
            {
              "internalType": "string",
              "name": "category",
              "type": "string"
            },
            {
              "internalType": "address",
              "name": "sender",
              "type": "address"
            }
          ],
          "internalType": "struct UploadUpgradeableV7.FileInfo[]",
          "name": "",
          "type": "tuple[]"
        }
      ],
      "stateMutability": "view",
      "type": "function"
    },
    {
      "inputs": [
        {
          "internalType": "address",
          "name": "_user",
          "type": "address"
        },
        {
          "internalType": "uint256",
          "name": "offset",
          "type": "uint256"
        },
        {
          "internalType": "uint256",
          "name": "limit",
          "type": "uint256"
        }
      ],
      "name": "displayPage",
      "outputs": [
        {
          "components": [
            {
              "internalType": "string",
              "name": "url",
              "type": "string"
            },
            {
              "internalType": "string",
              "name": "category",
              "type": "string"
            },
            {
              "internalType": "address",
              "name": "sender",
              "type": "address"
            }
          ],
          "internalType": "struct UploadUpgradeableV7.FileInfo[]",
          "name": "",
          "type": "tuple[]"
        }
      ],
      "stateMutability": "view",
      "type": "function"
    },
    {
      "inputs": [
        {
          "internalType": "string",
          "name": "",
          "type": "string"
        }
      ],
      "name": "encryptedAESKeys",
      "outputs": [
        {
          "internalType": "string",
          "name": "",
          "type": "string"
        }
      ],
      "stateMutability": "view",
      "type": "function"
    },
    {
      "inputs": [
        {
          "internalType": "address",
          "name": "",
          "type": "address"
        }
      ],
      "name": "encryptionKeyNonces",
      "outputs": [
        {
          "internalType": "uint256",
          "name": "",
          "type": "uint256"
        }
      ],
      "stateMutability": "view",
      "type": "function"
    },
    {
      "inputs": [
        {
          "internalType": "address",
          "name": "",
          "type": "address"
        }
      ],
      "name": "encryptionPublicKeys",
      "outputs": [
        {
          "internalType": "string",
          "name": "",
          "type": "string"
        }
      ],
      "stateMutability": "view",
      "type": "function"
    },
    {
      "inputs": [
        {
          "internalType": "string",
          "name": "",
          "type": "string"
        }
      ],
      "name": "fileHashes",
      "outputs": [
        {
          "internalType": "bytes32",
          "name": "",
          "type": "bytes32"
        }
      ],
      "stateMutability": "view",
      "type": "function"
    },
    {
      "inputs": [
        {
          "internalType": "string",
          "name": "",
          "type": "string"
        }
      ],
      "name": "fileSignatures",
      "outputs": [
        {
          "internalType": "bytes",
          "name": "",
          "type": "bytes"
        }
      ],
      "stateMutability": "view",
      "type": "function"
    },
    {
      "inputs": [
        {
          "internalType": "string",
          "name": "",
          "type": "string"
        },
        {
          "internalType": "uint256",
          "name": "",
          "type": "uint256"
        }
      ],
      "name": "fileVersions",
      "outputs": [
        {
          "internalType": "string",
          "name": "url",
          "type": "string"
        },
        {
          "internalType": "uint256",
          "name": "timestamp",
          "type": "uint256"
        }
      ],
      "stateMutability": "view",
      "type": "function"
    },
    {
      "inputs": [
        {
          "internalType": "address",
          "name": "_user",
          "type": "address"
        }
      ],
      "name": "getFileCount",
      "outputs": [
        {
          "internalType": "uint256",
          "name": "",
          "type": "uint256"
        }
      ],
      "stateMutability": "view",
      "type": "function"
    },
    {
      "inputs": [
        {
          "internalType": "string",
          "name": "currentUrl",
          "type": "string"
        }
      ],
      "name": "getFileHistory",
      "outputs": [
        {
          "components": [
            {
              "internalType": "string",
              "name": "url",
              "type": "string"
            },
            {
              "internalType": "uint256",
              "name": "timestamp",
              "type": "uint256"
            }
          ],
          "internalType": "struct UploadUpgradeableV7.Version[]",
          "name": "",
          "type": "tuple[]"
        }
      ],
      "stateMutability": "view",
      "type": "function"
    },
    {
      "inputs": [],
      "name": "initialize",
      "outputs": [],
      "stateMutability": "nonpayable",
      "type": "function"
    },
    {
      "inputs": [
        {
          "internalType": "string",
          "name": "",
          "type": "string"
        }
      ],
      "name": "originalUrls",
      "outputs": [
        {
          "internalType": "string",
          "name": "",
          "type": "string"
        }
      ],
      "stateMutability": "view",
      "type": "function"
    },
    {
      "inputs": [],
      "name": "owner",
      "outputs": [
        {
          "internalType": "address",
          "name": "",
          "type": "address"
        }
      ],
      "stateMutability": "view",
      "type": "function"
    },
    {
      "inputs": [
        {
          "internalType": "address",
          "name": "",
          "type": "address"
        },
        {
          "internalType": "address",
          "name": "",
          "type": "address"
        }
      ],
      "name": "ownership",
      "outputs": [
        {
          "internalType": "bool",
          "name": "",
          "type": "bool"
        }
      ],
      "stateMutability": "view",
      "type": "function"
    },
    {
      "inputs": [],
      "name": "proxiableUUID",
      "outputs": [
        {
          "internalType": "bytes32",
          "name": "",
          "type": "bytes32"
        }
      ],
      "stateMutability": "view",
      "type": "function"
    },
    {
      "inputs": [],
      "name": "renounceOwnership",
      "outputs": [],
      "stateMutability": "nonpayable",
      "type": "function"
    },
    {
      "inputs": [
        {
          "internalType": "address",
          "name": "receiver",
          "type": "address"
        },
        {
          "internalType": "string",
          "name": "url",
          "type": "string"
        },
        {
          "internalType": "string",
          "name": "category",
          "type": "string"
        }
      ],
      "name": "sendFileToReceiver",
      "outputs": [],
      "stateMutability": "nonpayable",
      "type": "function"
    },
    {
      "inputs": [
        {
          "internalType": "address",
          "name": "receiver",
          "type": "address"
        },
        {
          "internalType": "string[]",
          "name": "urls",
          "type": "string[]"
        },
        {
          "internalType": "string",
          "name": "category",
          "type": "string"
        }
      ],
      "name": "sendFileToReceiverBatch",
      "outputs": [],
      "stateMutability": "nonpayable",
      "type": "function"
    },
    {
      "inputs": [
        {
          "internalType": "address",
          "name": "receiver",
          "type": "address"
        },
        {
          "internalType": "string",
          "name": "url",
          "type": "string"
        },
        {
          "internalType": "string",
          "name": "category",
          "type": "string"
        },
        {
          "internalType": "bytes32",
          "name": "fileHash",
          "type": "bytes32"
        },
        {
          "internalType": "bytes",
          "name": "signature",
          "type": "bytes"
        },
        {
          "internalType": "string",
          "name": "encryptedKey",
          "type": "string"
        }
      ],
      "name": "sendFileToReceiverWithE2EE",
      "outputs": [],
      "stateMutability": "nonpayable",
      "type": "function"
    },
    {
      "inputs": [
        {
          "internalType": "address",
          "name": "receiver",
          "type": "address"
        },
        {
          "internalType": "string",
          "name": "url",
          "type": "string"
        },
        {
          "internalType": "string",
          "name": "category",
          "type": "string"
        },
        {
          "internalType": "bytes32",
          "name": "fileHash",
          "type": "bytes32"
        },
        {
          "internalType": "bytes",
          "name": "signature",
          "type": "bytes"
        }
      ],
      "name": "sendFileToReceiverWithSignature",
      "outputs": [],
      "stateMutability": "nonpayable",
      "type": "function"
    },
    {
      "inputs": [
        {
          "internalType": "string",
          "name": "key",
          "type": "string"
        },
        {
          "internalType": "bytes",
          "name": "signature",
          "type": "bytes"
        }
      ],
      "name": "setEncryptionPublicKey",
      "outputs": [],
      "stateMutability": "nonpayable",
      "type": "function"
    },
    {
      "inputs": [],
      "name": "shareAccess",
      "outputs": [
        {
          "components": [
            {
              "internalType": "address",
              "name": "user",
              "type": "address"
            },
            {
              "internalType": "bool",
              "name": "access",
              "type": "bool"
            }
          ],
          "internalType": "struct UploadUpgradeableV7.Access[]",
          "name": "",
          "type": "tuple[]"
        }
      ],
      "stateMutability": "view",
      "type": "function"
    },
    {
      "inputs": [
        {
          "internalType": "string",
          "name": "url",
          "type": "string"
        },
        {
          "internalType": "address[]",
          "name": "users",
          "type": "address[]"
        },
        {
          "internalType": "string[]",
          "name": "keys",
          "type": "string[]"
        }
      ],
      "name": "shareFileKeysForMultipleUsers",
      "outputs": [],
      "stateMutability": "nonpayable",
      "type": "function"
    },
    {
      "inputs": [
        {
          "internalType": "address",
          "name": "user",
          "type": "address"
        },
        {
          "internalType": "string[]",
          "name": "urls",
          "type": "string[]"
        },
        {
          "internalType": "string[]",
          "name": "keys",
          "type": "string[]"
        }
      ],
      "name": "shareFileKeysForUser",
      "outputs": [],
      "stateMutability": "nonpayable",
      "type": "function"
    },
    {
      "inputs": [
        {
          "internalType": "string",
          "name": "",
          "type": "string"
        },
        {
          "internalType": "address",
          "name": "",
          "type": "address"
        }
      ],
      "name": "sharedEncryptedAESKeys",
      "outputs": [
        {
          "internalType": "string",
          "name": "",
          "type": "string"
        }
      ],
      "stateMutability": "view",
      "type": "function"
    },
    {
      "inputs": [
        {
          "internalType": "address",
          "name": "newOwner",
          "type": "address"
        }
      ],
      "name": "transferOwnership",
      "outputs": [],
      "stateMutability": "nonpayable",
      "type": "function"
    },
    {
      "inputs": [
        {
          "internalType": "string",
          "name": "currentUrl",
          "type": "string"
        },
        {
          "internalType": "string",
          "name": "newUrl",
          "type": "string"
        },
        {
          "internalType": "bytes32",
          "name": "newFileHash",
          "type": "bytes32"
        },
        {
          "internalType": "bytes",
          "name": "newSignature",
          "type": "bytes"
        },
        {
          "internalType": "string",
          "name": "newEncryptedKey",
          "type": "string"
        }
      ],
      "name": "updateFile",
      "outputs": [],
      "stateMutability": "nonpayable",
      "type": "function"
    },
    {
      "inputs": [
        {
          "internalType": "address",
          "name": "newImplementation",
          "type": "address"
        },
        {
          "internalType": "bytes",
          "name": "data",
          "type": "bytes"
        }
      ],
      "name": "upgradeToAndCall",
      "outputs": [],
      "stateMutability": "payable",
      "type": "function"
    }
  ],
  "bytecode": "0x60a06040523060805234801562000014575f80fd5b506200001f62000025565b620000d9565b7ff0c57e16840df040f15088dc2f81fe391c3923bec73e23a9662efc9c229c6a00805468010000000000000000900460ff1615620000765760405163f92ee8a960e01b815260040160405180910390fd5b80546001600160401b0390811614620000d65780546001600160401b0319166001600160401b0390811782556040519081527fc7f505b2f371ae2175ee4913f4499e1f2633a7b5936321eed1cdaeb6115181d29060200160405180910390a15b50565b608051614a48620001005f395f818161312001528181613149015261328d0152614a485ff3fe608060405260043610610212575f3560e01c8063a2854fb31161011e578063c0ef9e75116100a8578063ebdf86ca1161006d578063ebdf86ca146106a9578063ede80824146106c8578063ee9125bc146106e7578063f2fde38b14610713578063fa001d7b14610732575f80fd5b8063c0ef9e751461060e578063d67dd89b1461062d578063dcdbe7ae1461064c578063eb39113f1461066b578063eb6d4ff41461068a575f80fd5b8063a9ed9cb8116100ee578063a9ed9cb814610560578063ad3cb1cc1461057f578063b66cd9e0146105af578063b90fec79146105ce578063bc8bef81146105ed575f80fd5b8063a2854fb3146104ca578063a303958c146104e9578063a34de3db14610516578063a991005414610541575f80fd5b8063547d39a11161019f578063715018a61161016f578063715018a6146103dd5780638129fc1c146103f15780638da5cb5b1461040557806391f205961461044b578063974fe59114610481575f80fd5b8063547d39a114610361578063570b0257146103805780636c6f31f21461039f5780636fa811e0146103be575f80fd5b8063438efa48116101e5578063438efa48146102aa57806345275252146102c9578063456912a91461030e5780634f1ef2861461033a57806352d1902d1461034d575f80fd5b80631135d5221461021657806314d7b7741461024b57806315448ee81461026c57806329411af01461028b575b5f80fd5b348015610221575f80fd5b506102356102303660046139b2565b610751565b6040516102429190613a2f565b60405180910390f35b348015610256575f80fd5b5061026a610265366004613b0d565b610ac2565b005b348015610277575f80fd5b5061026a610286366004613b87565b610c44565b348015610296575f80fd5b5061026a6102a5366004613c9d565b610ea0565b3480156102b5575f80fd5b5061026a6102c4366004613d03565b61101c565b3480156102d4575f80fd5b506103006102e3366004613deb565b805160208183018101805160078252928201919093012091525481565b604051908152602001610242565b348015610319575f80fd5b5061032d610328366004613deb565b61120c565b6040516102429190613e24565b61026a610348366004613e36565b6112af565b348015610358575f80fd5b506103006112ce565b34801561036c575f80fd5b5061032d61037b366004613deb565b6112e9565b34801561038b575f80fd5b5061032d61039a366004613e93565b61130d565b3480156103aa575f80fd5b5061026a6103b9366004613eac565b611325565b3480156103c9575f80fd5b5061026a6103d8366004613ed4565b611510565b3480156103e8575f80fd5b5061026a611740565b3480156103fc575f80fd5b5061026a611753565b348015610410575f80fd5b507f9016d09d72d40fdae2fd8ceac6b6234c7706214fd39c1cd1e609a0528c199300546040516001600160a01b039091168152602001610242565b348015610456575f80fd5b50610300610465366004613f7f565b600260209081525f928352604080842090915290825290205481565b34801561048c575f80fd5b506104ba61049b366004613f7f565b600160209081525f928352604080842090915290825290205460ff1681565b6040519015158152602001610242565b3480156104d5575f80fd5b5061032d6104e4366004613deb565b611848565b3480156104f4575f80fd5b50610508610503366004613fb0565b61186c565b604051610242929190613ff1565b348015610521575f80fd5b50610300610530366004613e93565b600c6020525f908152604090205481565b34801561054c575f80fd5b5061026a61055b366004614012565b61193d565b34801561056b575f80fd5b5061026a61057a366004613e93565b611ad8565b34801561058a575f80fd5b5061032d604051806040016040528060058152602001640352e302e360dc1b81525081565b3480156105ba575f80fd5b5061026a6105c9366004614050565b611d1c565b3480156105d9575f80fd5b5061026a6105e83660046140eb565b611ec9565b3480156105f8575f80fd5b50610601612311565b60405161024291906141b0565b348015610619575f80fd5b5061026a610628366004614209565b6124ce565b348015610638575f80fd5b5061032d610647366004614272565b6125b0565b348015610657575f80fd5b5061026a6106663660046142b3565b6125e3565b348015610676575f80fd5b50610235610685366004613e93565b6126d7565b348015610695575f80fd5b5061026a6106a4366004614345565b61292b565b3480156106b4575f80fd5b5061026a6106c3366004614345565b612a9b565b3480156106d3575f80fd5b5061026a6106e23660046140eb565b612bbc565b3480156106f2575f80fd5b50610706610701366004614012565b612d9b565b604051610242919061437a565b34801561071e575f80fd5b5061026a61072d366004613e93565b61300b565b34801561073d575f80fd5b5061030061074c366004613e93565b613048565b6001600160a01b0383165f9081526001602090815260408083203384529091528120546060919060ff1680156107d257506001600160a01b0385165f90815260026020908152604080832033845290915290205415806107d257506001600160a01b0385165f90815260026020908152604080832033845290915290205442105b90506001600160a01b0385163314806107e85750805b61080d5760405162461bcd60e51b8152600401610804906143e2565b60405180910390fd5b6001600160a01b0385165f9081526020819052604090205480851061087957604080515f808252602082019092529061086f565b604080516060808201835280825260208201525f918101919091528152602001906001900390816108415790505b5092505050610abb565b5f6108848587614425565b9050818111156108915750805b5f61089c8783614438565b90505f816001600160401b038111156108b7576108b7613d47565b60405190808252806020026020018201604052801561090357816020015b604080516060808201835280825260208201525f918101919091528152602001906001900390816108d55790505b5090505f5b82811015610ab3576001600160a01b038a165f908152602081905260409020610931828b614425565b815481106109415761094161444b565b905f5260205f2090600302016040518060600160405290815f820180546109679061445f565b80601f01602080910402602001604051908101604052809291908181526020018280546109939061445f565b80156109de5780601f106109b5576101008083540402835291602001916109de565b820191905f5260205f20905b8154815290600101906020018083116109c157829003601f168201915b505050505081526020016001820180546109f79061445f565b80601f0160208091040260200160405190810160405280929190818152602001828054610a239061445f565b8015610a6e5780601f10610a4557610100808354040283529160200191610a6e565b820191905f5260205f20905b815481529060010190602001808311610a5157829003601f168201915b5050509183525050600291909101546001600160a01b03166020909101528251839083908110610aa057610aa061444b565b6020908102919091010152600101610908565b509450505050505b9392505050565b336001600160a01b03861603610b1a5760405162461bcd60e51b815260206004820152601c60248201527f55736520616464282920666f7220796f7572206f776e2066696c6573000000006044820152606401610804565b6001600160a01b0385165f908152602081815260409182902082516080601f8801849004909302810183019093526060830186815290929182919088908890819085018382808284375f92019190915250505090825250604080516020601f8701819004810282018101909252858152918101919086908690819084018382808284375f920182905250938552505033602093840152508354600181018555938152208151919260030201908190610bd290826144ef565b5060208201516001820190610be790826144ef565b5060409182015160029190910180546001600160a01b0319166001600160a01b03928316179055905133918716905f805160206149b383398151915290610c359088908890889088906145cd565b60405180910390a35050505050565b336001600160a01b038b1603610ca85760405162461bcd60e51b8152602060048201526024808201527f557365206164645769746845324545282920666f7220796f7572206f776e2066604482015263696c657360e01b6064820152608401610804565b6001600160a01b038a165f908152602081815260409182902082516080601f8d0184900490930281018301909352606083018b81529092918291908d908d90819085018382808284375f92019190915250505090825250604080516020601f8c018190048102820181019092528a815291810191908b908b90819084018382808284375f920182905250938552505033602093840152508354600181018555938152208151919260030201908190610d6090826144ef565b5060208201516001820190610d7590826144ef565b5060409182015160029190910180546001600160a01b0319166001600160a01b03909216919091179055518590600790610db2908c908c906145fe565b908152602001604051809103902081905550838360068b8b604051610dd89291906145fe565b90815260200160405180910390209182610df392919061460d565b50818160098b8b604051610e089291906145fe565b90815260200160405180910390209182610e2392919061460d565b50336001600160a01b03168a6001600160a01b03165f805160206149b38339815191528b8b8b8b604051610e5a94939291906145cd565b60405180910390a3336001600160a01b03165f805160206149f38339815191528a8a88604051610e8c939291906146c1565b60405180910390a250505050505050505050565b5f5b8381101561101557335f90815260208190526040908190208151606081019092529080878785818110610ed757610ed761444b565b9050602002810190610ee991906146e4565b8080601f0160208091040260200160405190810160405280939291908181526020018383808284375f92019190915250505090825250604080516020601f8801819004810282018101909252868152918101919087908790819084018382808284375f920182905250938552505033602093840152508354600181018555938152208151919260030201908190610f8090826144ef565b5060208201516001820190610f9590826144ef565b5060409190910151600290910180546001600160a01b0319166001600160a01b0390921691909117905533805f805160206149b3833981519152878785818110610fe157610fe161444b565b9050602002810190610ff391906146e4565b878760405161100594939291906145cd565b60405180910390a3600101610ea2565b5050505050565b336001600160a01b0386160361107e5760405162461bcd60e51b815260206004820152602160248201527f557365206164644261746368282920666f7220796f7572206f776e2066696c656044820152607360f81b6064820152608401610804565b5f5b83811015611204575f80876001600160a01b03166001600160a01b031681526020019081526020015f2060405180606001604052808787858181106110c7576110c761444b565b90506020028101906110d991906146e4565b8080601f0160208091040260200160405190810160405280939291908181526020018383808284375f92019190915250505090825250604080516020601f8801819004810282018101909252868152918101919087908790819084018382808284375f92018290525093855250503360209384015250835460018101855593815220815191926003020190819061117090826144ef565b506020820151600182019061118590826144ef565b5060409190910151600290910180546001600160a01b0319166001600160a01b03928316179055339087165f805160206149b38339815191528787858181106111d0576111d061444b565b90506020028101906111e291906146e4565b87876040516111f494939291906145cd565b60405180910390a3600101611080565b505050505050565b8051602081830181018051600682529282019190930120915280546112309061445f565b80601f016020809104026020016040519081016040528092919081815260200182805461125c9061445f565b80156112a75780601f1061127e576101008083540402835291602001916112a7565b820191905f5260205f20905b81548152906001019060200180831161128a57829003601f168201915b505050505081565b6112b7613115565b6112c0826131b9565b6112ca82826131c1565b5050565b5f6112d7613282565b505f805160206149d383398151915290565b8051602081830181018051600982529282019190930120915280546112309061445f565b60086020525f9081526040902080546112309061445f565b336001600160a01b0383160361137d5760405162461bcd60e51b815260206004820152601a60248201527f43616e6e6f74207368617265207769746820796f757273656c660000000000006044820152606401610804565b335f9081526001602081815260408084206001600160a01b0387168552909152909120805460ff1916909117905580156113ee576113bc81603c614726565b6113c69042614425565b335f9081526002602090815260408083206001600160a01b0387168452909152902055611412565b335f9081526002602090815260408083206001600160a01b03861684529091528120555b335f9081526005602090815260408083206001600160a01b038616845290915290205460ff166114cc57335f81815260036020908152604082208054600180820183558285529284200180546001600160a01b0319166001600160a01b0388161790559290915290546114859190614438565b335f8181526004602090815260408083206001600160a01b0388168085529083528184209590955592825260058152828220938252929092529020805460ff191660011790555b6040518181526001600160a01b0383169033907f65d0cc1e52d49938ca4ad9f423c79c1b84d914b9a683fbc5d3f93ac3cc5635f59060200160405180910390a35050565b336001600160a01b0389160361157a5760405162461bcd60e51b815260206004820152602960248201527f55736520616464576974685369676e6174757265282920666f7220796f7572206044820152686f776e2066696c657360b81b6064820152608401610804565b6001600160a01b0388165f908152602081815260409182902082516080601f8b0184900490930281018301909352606083018981529092918291908b908b90819085018382808284375f92019190915250505090825250604080516020601f8a01819004810282018101909252888152918101919089908990819084018382808284375f92018290525093855250503360209384015250835460018101855593815220815191926003020190819061163290826144ef565b506020820151600182019061164790826144ef565b5060409182015160029190910180546001600160a01b0319166001600160a01b03909216919091179055518390600790611684908a908a906145fe565b9081526020016040518091039020819055508181600689896040516116aa9291906145fe565b908152602001604051809103902091826116c592919061460d565b50336001600160a01b0316886001600160a01b03165f805160206149b3833981519152898989896040516116fc94939291906145cd565b60405180910390a3336001600160a01b03165f805160206149f383398151915288888660405161172e939291906146c1565b60405180910390a25050505050505050565b6117486132cb565b6117515f613326565b565b5f61175c613396565b805490915060ff600160401b82041615906001600160401b03165f811580156117825750825b90505f826001600160401b0316600114801561179d5750303b155b9050811580156117ab575080155b156117c95760405163f92ee8a960e01b815260040160405180910390fd5b845467ffffffffffffffff1916600117855583156117f357845460ff60401b1916600160401b1785555b6117fc336133be565b831561101557845460ff60401b19168555604051600181527fc7f505b2f371ae2175ee4913f4499e1f2633a7b5936321eed1cdaeb6115181d29060200160405180910390a15050505050565b8051602081830181018051600a82529282019190930120915280546112309061445f565b8151602081840181018051600b825292820191850191909120919052805482908110611896575f80fd5b905f5260205f2090600202015f9150915050805f0180546118b69061445f565b80601f01602080910402602001604051908101604052809291908181526020018280546118e29061445f565b801561192d5780601f106119045761010080835404028352916020019161192d565b820191905f5260205f20905b81548152906001019060200180831161191057829003601f168201915b5050505050908060010154905082565b335f908152602081905260408120905b8154811015611ad25783836040516119669291906145fe565b60405180910390208282815481106119805761198061444b565b905f5260205f2090600302015f0160405161199b919061473d565b604051809103902003611aca57815482906119b890600190614438565b815481106119c8576119c861444b565b905f5260205f2090600302018282815481106119e6576119e661444b565b5f918252602090912060039091020180611a0083826147af565b50600181810190611a13908401826147af565b50600291820154910180546001600160a01b0319166001600160a01b039092169190911790558154829080611a4a57611a4a614874565b5f828152602081205f1990920191600383020190611a68828261394d565b611a75600183015f61394d565b5060020180546001600160a01b0319169055905560405133907f14a51c77a00d5c4c3ccc7a4df74f169088c4d4d04859d176729645e53c7b895c90611abd9087908790614888565b60405180910390a2611ad2565b60010161194d565b50505050565b335f9081526001602090815260408083206001600160a01b038516845290915290205460ff16611b4a5760405162461bcd60e51b815260206004820152601960248201527f5573657220646f6573206e6f74206861766520616363657373000000000000006044820152606401610804565b335f8181526001602090815260408083206001600160a01b038616808552908352818420805460ff1916905593835260058252808320938352929052205460ff1615611ce457335f8181526004602090815260408083206001600160a01b03861684528252808320549383526003909152812054611bca90600190614438565b335f9081526003602052604081208054929350909183908110611bef57611bef61444b565b5f9182526020808320909101543383526003909152604090912080546001600160a01b039092169250829185908110611c2a57611c2a61444b565b5f91825260208083209190910180546001600160a01b0319166001600160a01b0394851617905533808352600482526040808420948616845293825283832087905582526003905220805480611c8257611c82614874565b5f828152602080822083015f1990810180546001600160a01b0319169055909201909255338083526005825260408084206001600160a01b038916808652908452818520805460ff191690559184526004835280842091845291528120555050505b6040516001600160a01b0382169033907f825c8be24eb0df19500f63e86c29e7d0d951e73056b889b891d85e40938d9b6e905f90a350565b335f908152602081815260409182902082516080601f8b0184900490930281018301909352606083018981529092918291908b908b90819085018382808284375f92019190915250505090825250604080516020601f8a01819004810282018101909252888152918101919089908990819084018382808284375f920182905250938552505033602093840152508354600181018555938152208151919260030201908190611dcb90826144ef565b5060208201516001820190611de090826144ef565b5060409182015160029190910180546001600160a01b0319166001600160a01b03909216919091179055518390600790611e1d908a908a906145fe565b908152602001604051809103902081905550818160068989604051611e439291906145fe565b90815260200160405180910390209182611e5e92919061460d565b50604051339081905f805160206149b383398151915290611e86908b908b908b908b906145cd565b60405180910390a3336001600160a01b03165f805160206149f3833981519152888886604051611eb8939291906146c1565b60405180910390a250505050505050565b335f90815260208190526040812090805b8254811015611f76578b8b604051611ef39291906145fe565b6040518091039020838281548110611f0d57611f0d61444b565b905f5260205f2090600302015f01604051611f28919061473d565b604051809103902003611f6e578989848381548110611f4957611f4961444b565b905f5260205f2090600302015f019182611f6492919061460d565b5060019150611f76565b600101611eda565b5080611fb55760405162461bcd60e51b815260206004820152600e60248201526d119a5b19481b9bdd08199bdd5b9960921b6044820152606401610804565b5f600a8c8c604051611fc89291906145fe565b90815260200160405180910390208054611fe19061445f565b80601f016020809104026020016040519081016040528092919081815260200182805461200d9061445f565b80156120585780601f1061202f57610100808354040283529160200191612058565b820191905f5260205f20905b81548152906001019060200180831161203b57829003601f168201915b5050505050905080515f03612174578b8b8080601f0160208091040260200160405190810160405280939291908181526020018383808284375f92019190915250506040519293508392600a92506120b491508f908f906145fe565b908152602001604051809103902090816120ce91906144ef565b50600b816040516120df919061489b565b908152602001604051809103902060405180604001604052808e8e8080601f0160208091040260200160405190810160405280939291908181526020018383808284375f9201919091525050509082525060200161213e600142614438565b905281546001810183555f9283526020909220815191926002020190819061216690826144ef565b506020820151816001015550505b80600a8b8b6040516121879291906145fe565b908152602001604051809103902090816121a191906144ef565b50600b816040516121b2919061489b565b908152602001604051809103902060405180604001604052808c8c8080601f0160208091040260200160405190810160405280939291908181526020018383808284375f92018290525093855250504260209384015250835460018101855593815220815191926002020190819061222a90826144ef565b506020820151816001015550508760078b8b60405161224a9291906145fe565b908152602001604051809103902081905550868660068c8c6040516122709291906145fe565b9081526020016040518091039020918261228b92919061460d565b50848460098c8c6040516122a09291906145fe565b908152602001604051809103902091826122bb92919061460d565b50336001600160a01b03167feed1d9aeac219cfdbb0e954790128fda20008d428c716ff4d982f2218cb9c9ee8d8d8d8d6040516122fb94939291906145cd565b60405180910390a2505050505050505050505050565b335f90815260036020908152604080832080548251818502810185019093528083526060949383018282801561236e57602002820191905f5260205f20905b81546001600160a01b03168152600190910190602001808311612350575b505050505090505f81516001600160401b0381111561238f5761238f613d47565b6040519080825280602002602001820160405280156123d357816020015b604080518082019091525f80825260208201528152602001906001900390816123ad5790505b5090505f5b82518110156124c7575f8382815181106123f4576123f461444b565b602090810291909101810151335f9081526001835260408082206001600160a01b03841683529093529182205490925060ff16801561247e5750335f9081526002602090815260408083206001600160a01b0386168452909152902054158061247e5750335f9081526002602090815260408083206001600160a01b038616845290915290205442105b90506040518060400160405280836001600160a01b031681526020018215158152508484815181106124b2576124b261444b565b602090810291909101015250506001016123d8565b5092915050565b8281146125165760405162461bcd60e51b8152602060048201526016602482015275082e4e4c2f2e640d8cadccee8d040dad2e6dac2e8c6d60531b6044820152606401610804565b5f5b83811015611204578282828181106125325761253261444b565b905060200281019061254491906146e4565b600d8787858181106125585761255861444b565b905060200281019061256a91906146e4565b6040516125789291906145fe565b90815260408051602092819003830190206001600160a01b038b165f90815292529020916125a791908361460d565b50600101612518565b8151602081840181018051600d825292820194820194909420919093529091525f9081526040902080546112309061445f565b82811461262b5760405162461bcd60e51b8152602060048201526016602482015275082e4e4c2f2e640d8cadccee8d040dad2e6dac2e8c6d60531b6044820152606401610804565b5f5b838110156126ce578282828181106126475761264761444b565b905060200281019061265991906146e4565b600d898960405161266b9291906145fe565b90815260200160405180910390205f88888681811061268c5761268c61444b565b90506020020160208101906126a19190613e93565b6001600160a01b0316815260208101919091526040015f20916126c591908361460d565b5060010161262d565b50505050505050565b6001600160a01b0381165f9081526001602090815260408083203384529091528120546060919060ff16801561275857506001600160a01b0383165f908152600260209081526040808320338452909152902054158061275857506001600160a01b0383165f90815260026020908152604080832033845290915290205442105b90506001600160a01b03831633148061276e5750805b61278a5760405162461bcd60e51b8152600401610804906143e2565b6001600160a01b0383165f9081526020818152604080832080548251818502810185019093528083529193909284015b8282101561291f578382905f5260205f2090600302016040518060600160405290815f820180546127ea9061445f565b80601f01602080910402602001604051908101604052809291908181526020018280546128169061445f565b80156128615780601f1061283857610100808354040283529160200191612861565b820191905f5260205f20905b81548152906001019060200180831161284457829003601f168201915b5050505050815260200160018201805461287a9061445f565b80601f01602080910402602001604051908101604052809291908181526020018280546128a69061445f565b80156128f15780601f106128c8576101008083540402835291602001916128f1565b820191905f5260205f20905b8154815290600101906020018083116128d457829003601f168201915b5050509183525050600291909101546001600160a01b031660209182015290825260019290920191016127ba565b50505050915050919050565b335f908152600c6020526040812054908585612946846133cf565b604051602001612958939291906148b6565b60405160208183030381529060405290505f6129738261345e565b90505f6129b58287878080601f0160208091040260200160405190810160405280939291908181526020018383808284375f9201919091525061349892505050565b90506001600160a01b0381163314612a275760405162461bcd60e51b815260206004820152602f60248201527f496e76616c6964207369676e61747572653a207369676e657220646f6573206e60448201526e37ba1036b0ba31b41039b2b73232b960891b6064820152608401610804565b335f908152600c60205260408120805491612a4183614915565b9091555050335f908152600860205260409020612a5f888a8361460d565b50336001600160a01b03167f68a2bebc02ae7d7f916c4941a8188a48f46cb1b0f5458403638cb1eb3ab30bf8898960405161172e929190614888565b335f908152602081815260409182902082516080601f8801849004909302810183019093526060830186815290929182919088908890819085018382808284375f92019190915250505090825250604080516020601f8701819004810282018101909252858152918101919086908690819084018382808284375f920182905250938552505033602093840152508354600181018555938152208151919260030201908190612b4a90826144ef565b5060208201516001820190612b5f90826144ef565b5060409182015160029190910180546001600160a01b0319166001600160a01b0390921691909117905551339081905f805160206149b383398151915290612bae9088908890889088906145cd565b60405180910390a350505050565b335f908152602081815260409182902082516080601f8d0184900490930281018301909352606083018b81529092918291908d908d90819085018382808284375f92019190915250505090825250604080516020601f8c018190048102820181019092528a815291810191908b908b90819084018382808284375f920182905250938552505033602093840152508354600181018555938152208151919260030201908190612c6b90826144ef565b5060208201516001820190612c8090826144ef565b5060409182015160029190910180546001600160a01b0319166001600160a01b03909216919091179055518590600790612cbd908c908c906145fe565b908152602001604051809103902081905550838360068b8b604051612ce39291906145fe565b90815260200160405180910390209182612cfe92919061460d565b50818160098b8b604051612d139291906145fe565b90815260200160405180910390209182612d2e92919061460d565b50604051339081905f805160206149b383398151915290612d56908d908d908d908d906145cd565b60405180910390a3336001600160a01b03165f805160206149f38339815191528a8a88604051612d88939291906146c1565b60405180910390a2505050505050505050565b60605f600a8484604051612db09291906145fe565b90815260200160405180910390208054612dc99061445f565b80601f0160208091040260200160405190810160405280929190818152602001828054612df59061445f565b8015612e405780601f10612e1757610100808354040283529160200191612e40565b820191905f5260205f20905b815481529060010190602001808311612e2357829003601f168201915b5050505050905080515f03612ef7576040805160018082528183019092525f91816020015b60408051808201909152606081525f6020820152815260200190600190039081612e65579050506040805160606020601f89018190040282018101835291810187815292935091829188908890819085018382808284375f92018290525093855250505060209091018190528251839190612ee257612ee261444b565b60200260200101819052508092505050613005565b600b81604051612f07919061489b565b9081526020016040518091039020805480602002602001604051908101604052809291908181526020015f905b82821015612ffd578382905f5260205f2090600202016040518060400160405290815f82018054612f649061445f565b80601f0160208091040260200160405190810160405280929190818152602001828054612f909061445f565b8015612fdb5780601f10612fb257610100808354040283529160200191612fdb565b820191905f5260205f20905b815481529060010190602001808311612fbe57829003601f168201915b5050505050815260200160018201548152505081526020019060010190612f34565b505050509150505b92915050565b6130136132cb565b6001600160a01b03811661303c57604051631e4fbdf760e01b81525f6004820152602401610804565b61304581613326565b50565b6001600160a01b0381165f908152600160209081526040808320338452909152812054819060ff1680156130c757506001600160a01b0383165f90815260026020908152604080832033845290915290205415806130c757506001600160a01b0383165f90815260026020908152604080832033845290915290205442105b90506001600160a01b0383163314806130dd5750805b6130f95760405162461bcd60e51b8152600401610804906143e2565b50506001600160a01b03165f9081526020819052604090205490565b306001600160a01b037f000000000000000000000000000000000000000000000000000000000000000016148061319b57507f00000000000000000000000000000000000000000000000000000000000000006001600160a01b031661318f5f805160206149d3833981519152546001600160a01b031690565b6001600160a01b031614155b156117515760405163703e46dd60e11b815260040160405180910390fd5b6130456132cb565b816001600160a01b03166352d1902d6040518163ffffffff1660e01b8152600401602060405180830381865afa92505050801561321b575060408051601f3d908101601f191682019092526132189181019061492d565b60015b61324357604051634c9c8ce360e01b81526001600160a01b0383166004820152602401610804565b5f805160206149d3833981519152811461327357604051632a87526960e21b815260048101829052602401610804565b61327d83836134c0565b505050565b306001600160a01b037f000000000000000000000000000000000000000000000000000000000000000016146117515760405163703e46dd60e11b815260040160405180910390fd5b336132fd7f9016d09d72d40fdae2fd8ceac6b6234c7706214fd39c1cd1e609a0528c199300546001600160a01b031690565b6001600160a01b0316146117515760405163118cdaa760e01b8152336004820152602401610804565b7f9016d09d72d40fdae2fd8ceac6b6234c7706214fd39c1cd1e609a0528c19930080546001600160a01b031981166001600160a01b03848116918217845560405192169182907f8be0079c531659141344cd1fd0a4f28419497f9722a3daafe3b4186f6b6457e0905f90a3505050565b5f807ff0c57e16840df040f15088dc2f81fe391c3923bec73e23a9662efc9c229c6a00613005565b6133c6613515565b6130458161353a565b60605f6133db83613542565b60010190505f816001600160401b038111156133f9576133f9613d47565b6040519080825280601f01601f191660200182016040528015613423576020820181803683370190505b5090508181016020015b5f19016f181899199a1a9b1b9c1cb0b131b232b360811b600a86061a8153600a850494508461342d57509392505050565b5f61346982516133cf565b8260405160200161347b929190614944565b604051602081830303815290604052805190602001209050919050565b5f805f806134a68686613619565b9250925092506134b68282613662565b5090949350505050565b6134c98261371a565b6040516001600160a01b038316907fbc7cd75a20ee27fd9adebab32041f755214dbc6bffa90cc0225b39da2e5c2d3b905f90a280511561350d5761327d828261377d565b6112ca613816565b61351d613835565b61175157604051631afcd79f60e31b815260040160405180910390fd5b613013613515565b5f8072184f03e93ff9f4daa797ed6e38ed64bf6a1f0160401b83106135805772184f03e93ff9f4daa797ed6e38ed64bf6a1f0160401b830492506040015b6d04ee2d6d415b85acef810000000083106135ac576d04ee2d6d415b85acef8100000000830492506020015b662386f26fc1000083106135ca57662386f26fc10000830492506010015b6305f5e10083106135e2576305f5e100830492506008015b61271083106135f657612710830492506004015b60648310613608576064830492506002015b600a83106130055760010192915050565b5f805f8351604103613650576020840151604085015160608601515f1a6136428882858561384e565b95509550955050505061365b565b505081515f91506002905b9250925092565b5f8260038111156136755761367561499e565b0361367e575050565b60018260038111156136925761369261499e565b036136b05760405163f645eedf60e01b815260040160405180910390fd5b60028260038111156136c4576136c461499e565b036136e55760405163fce698f760e01b815260048101829052602401610804565b60038260038111156136f9576136f961499e565b036112ca576040516335e2f38360e21b815260048101829052602401610804565b806001600160a01b03163b5f0361374f57604051634c9c8ce360e01b81526001600160a01b0382166004820152602401610804565b5f805160206149d383398151915280546001600160a01b0319166001600160a01b0392909216919091179055565b60605f61378a8484613916565b90508080156137ab57505f3d11806137ab57505f846001600160a01b03163b115b156137c0576137b8613929565b915050613005565b80156137ea57604051639996b31560e01b81526001600160a01b0385166004820152602401610804565b3d156137fd576137f8613942565b6124c7565b60405163d6bda27560e01b815260040160405180910390fd5b34156117515760405163b398979f60e01b815260040160405180910390fd5b5f61383e613396565b54600160401b900460ff16919050565b5f80807f7fffffffffffffffffffffffffffffff5d576e7357a4501ddfe92f46681b20a084111561388757505f9150600390508261390c565b604080515f808252602082018084528a905260ff891692820192909252606081018790526080810186905260019060a0016020604051602081039080840390855afa1580156138d8573d5f803e3d5ffd5b5050604051601f1901519150506001600160a01b03811661390357505f92506001915082905061390c565b92505f91508190505b9450945094915050565b5f805f835160208501865af49392505050565b6040513d81523d5f602083013e3d602001810160405290565b6040513d5f823e3d81fd5b5080546139599061445f565b5f825580601f10613968575050565b601f0160209004905f5260205f209081019061304591905b80821115613993575f8155600101613980565b5090565b80356001600160a01b03811681146139ad575f80fd5b919050565b5f805f606084860312156139c4575f80fd5b6139cd84613997565b95602085013595506040909401359392505050565b5f5b838110156139fc5781810151838201526020016139e4565b50505f910152565b5f8151808452613a1b8160208601602086016139e2565b601f01601f19169290920160200192915050565b5f60208083018184528085518083526040925060408601915060408160051b8701018488015f5b83811015613abb57603f19898403018552815160608151818652613a7c82870182613a04565b915050888201518582038a870152613a948282613a04565b928901516001600160a01b0316958901959095525094870194925090860190600101613a56565b509098975050505050505050565b5f8083601f840112613ad9575f80fd5b5081356001600160401b03811115613aef575f80fd5b602083019150836020828501011115613b06575f80fd5b9250929050565b5f805f805f60608688031215613b21575f80fd5b613b2a86613997565b945060208601356001600160401b0380821115613b45575f80fd5b613b5189838a01613ac9565b90965094506040880135915080821115613b69575f80fd5b50613b7688828901613ac9565b969995985093965092949392505050565b5f805f805f805f805f8060c08b8d031215613ba0575f80fd5b613ba98b613997565b995060208b01356001600160401b0380821115613bc4575f80fd5b613bd08e838f01613ac9565b909b50995060408d0135915080821115613be8575f80fd5b613bf48e838f01613ac9565b909950975060608d0135965060808d0135915080821115613c13575f80fd5b613c1f8e838f01613ac9565b909650945060a08d0135915080821115613c37575f80fd5b50613c448d828e01613ac9565b915080935050809150509295989b9194979a5092959850565b5f8083601f840112613c6d575f80fd5b5081356001600160401b03811115613c83575f80fd5b6020830191508360208260051b8501011115613b06575f80fd5b5f805f8060408587031215613cb0575f80fd5b84356001600160401b0380821115613cc6575f80fd5b613cd288838901613c5d565b90965094506020870135915080821115613cea575f80fd5b50613cf787828801613ac9565b95989497509550505050565b5f805f805f60608688031215613d17575f80fd5b613d2086613997565b945060208601356001600160401b0380821115613d3b575f80fd5b613b5189838a01613c5d565b634e487b7160e01b5f52604160045260245ffd5b5f6001600160401b0380841115613d7457613d74613d47565b604051601f8501601f19908116603f01168101908282118183101715613d9c57613d9c613d47565b81604052809350858152868686011115613db4575f80fd5b858560208301375f602087830101525050509392505050565b5f82601f830112613ddc575f80fd5b610abb83833560208501613d5b565b5f60208284031215613dfb575f80fd5b81356001600160401b03811115613e10575f80fd5b613e1c84828501613dcd565b949350505050565b602081525f610abb6020830184613a04565b5f8060408385031215613e47575f80fd5b613e5083613997565b915060208301356001600160401b03811115613e6a575f80fd5b8301601f81018513613e7a575f80fd5b613e8985823560208401613d5b565b9150509250929050565b5f60208284031215613ea3575f80fd5b610abb82613997565b5f8060408385031215613ebd575f80fd5b613ec683613997565b946020939093013593505050565b5f805f805f805f8060a0898b031215613eeb575f80fd5b613ef489613997565b975060208901356001600160401b0380821115613f0f575f80fd5b613f1b8c838d01613ac9565b909950975060408b0135915080821115613f33575f80fd5b613f3f8c838d01613ac9565b909750955060608b0135945060808b0135915080821115613f5e575f80fd5b50613f6b8b828c01613ac9565b999c989b5096995094979396929594505050565b5f8060408385031215613f90575f80fd5b613f9983613997565b9150613fa760208401613997565b90509250929050565b5f8060408385031215613fc1575f80fd5b82356001600160401b03811115613fd6575f80fd5b613fe285828601613dcd565b95602094909401359450505050565b604081525f6140036040830185613a04565b90508260208301529392505050565b5f8060208385031215614023575f80fd5b82356001600160401b03811115614038575f80fd5b61404485828601613ac9565b90969095509350505050565b5f805f805f805f6080888a031215614066575f80fd5b87356001600160401b038082111561407c575f80fd5b6140888b838c01613ac9565b909950975060208a01359150808211156140a0575f80fd5b6140ac8b838c01613ac9565b909750955060408a0135945060608a01359150808211156140cb575f80fd5b506140d88a828b01613ac9565b989b979a50959850939692959293505050565b5f805f805f805f805f60a08a8c031215614103575f80fd5b89356001600160401b0380821115614119575f80fd5b6141258d838e01613ac9565b909b50995060208c013591508082111561413d575f80fd5b6141498d838e01613ac9565b909950975060408c0135965060608c0135915080821115614168575f80fd5b6141748d838e01613ac9565b909650945060808c013591508082111561418c575f80fd5b506141998c828d01613ac9565b915080935050809150509295985092959850929598565b602080825282518282018190525f919060409081850190868401855b828110156141fc57815180516001600160a01b0316855286015115158685015292840192908501906001016141cc565b5091979650505050505050565b5f805f805f6060868803121561421d575f80fd5b61422686613997565b945060208601356001600160401b0380821115614241575f80fd5b61424d89838a01613c5d565b90965094506040880135915080821115614265575f80fd5b50613b7688828901613c5d565b5f8060408385031215614283575f80fd5b82356001600160401b03811115614298575f80fd5b6142a485828601613dcd565b925050613fa760208401613997565b5f805f805f80606087890312156142c8575f80fd5b86356001600160401b03808211156142de575f80fd5b6142ea8a838b01613ac9565b90985096506020890135915080821115614302575f80fd5b61430e8a838b01613c5d565b90965094506040890135915080821115614326575f80fd5b5061433389828a01613c5d565b979a9699509497509295939492505050565b5f805f8060408587031215614358575f80fd5b84356001600160401b038082111561436e575f80fd5b613cd288838901613ac9565b5f60208083018184528085518083526040925060408601915060408160051b8701018488015f5b83811015613abb57888303603f19018552815180518785526143c588860182613a04565b9189015194890194909452948701949250908601906001016143a1565b602080825260159082015274596f7520646f6e277420686176652061636365737360581b604082015260600190565b634e487b7160e01b5f52601160045260245ffd5b8082018082111561300557613005614411565b8181038181111561300557613005614411565b634e487b7160e01b5f52603260045260245ffd5b600181811c9082168061447357607f821691505b60208210810361449157634e487b7160e01b5f52602260045260245ffd5b50919050565b601f82111561327d57805f5260205f20601f840160051c810160208510156144bc5750805b601f840160051c820191505b81811015611015575f81556001016144c8565b5f19600383901b1c191660019190911b1790565b81516001600160401b0381111561450857614508613d47565b61451c81614516845461445f565b84614497565b602080601f83116001811461454a575f84156145385750858301515b61454285826144db565b865550611204565b5f85815260208120601f198616915b8281101561457857888601518255948401946001909101908401614559565b508582101561459557878501515f19600388901b60f8161c191681555b5050505050600190811b01905550565b81835281816020850137505f828201602090810191909152601f909101601f19169091010190565b604081525f6145e06040830186886145a5565b82810360208401526145f38185876145a5565b979650505050505050565b818382375f9101908152919050565b6001600160401b0383111561462457614624613d47565b61463883614632835461445f565b83614497565b5f601f841160018114614664575f85156146525750838201355b61465c86826144db565b845550611015565b5f83815260208120601f198716915b828110156146935786850135825560209485019460019092019101614673565b50868210156146af575f1960f88860031b161c19848701351681555b505060018560011b0183555050505050565b604081525f6146d46040830185876145a5565b9050826020830152949350505050565b5f808335601e198436030181126146f9575f80fd5b8301803591506001600160401b03821115614712575f80fd5b602001915036819003821315613b06575f80fd5b808202811582820484141761300557613005614411565b5f80835461474a8161445f565b600182811680156147625760018114614777576147a3565b60ff19841687528215158302870194506147a3565b875f526020805f205f5b8581101561479a5781548a820152908401908201614781565b50505082870194505b50929695505050505050565b8181036147ba575050565b6147c4825461445f565b6001600160401b038111156147db576147db613d47565b6147e981614516845461445f565b5f601f821160018114614815575f83156148035750848201545b61480d84826144db565b855550611015565b5f8581526020808220868352908220601f198616925b8381101561484b578286015482556001958601959091019060200161482b565b5085831015614595579301545f1960f8600387901b161c19169092555050600190811b01905550565b634e487b7160e01b5f52603160045260245ffd5b602081525f613e1c6020830184866145a5565b5f82516148ac8184602087016139e2565b9190910192915050565b7f436f6e6669726d2045324545205075626c6963204b65793a20000000000000008152828460198301375f838201670102737b731b29d160c51b601982015283516149088160218401602088016139e2565b0160210195945050505050565b5f6001820161492657614926614411565b5060010190565b5f6020828403121561493d575f80fd5b5051919050565b7f19457468657265756d205369676e6564204d6573736167653a0a00000000000081525f835161497b81601a8501602088016139e2565b83519083019061499281601a8401602088016139e2565b01601a01949350505050565b634e487b7160e01b5f52602160045260245ffdfee0f76fb99d0fdcc765fe6a79952945f024346ab3418e7d8cc9eed19185d31d4c360894a13ba1a3210667c828492db98dca3e2076cc3735a920a3ca505d382bbc405aa9f544034efa22d1924de4ffaaaedf71ef4e579ad1b5da738a24930e3a59a264697066735822122069e38c732dd5371331efa5f8553be3cd712a423f8ab4bc37084b64794cfa902464736f6c63430008180033",
  "linkReferences": {},
  "deployedLinkReferences": {}
}