{
  "_format": "hh-sol-artifact-1",
  "contractName": "UploadUpgradeableV6",
  "sourceName": "contracts/UploadUpgradeableV6.sol",
  "abi": [
    {
      "inputs": [],
      "stateMutability": "nonpayable",
      "type": "constructor"
    },
    {
      "inputs": [
        {
          "internalType": "address",
          "name": "target",
          "type": "address"
        }
      ],
      "name": "AddressEmptyCode",
      "type": "error"
    },
    {
      "inputs": [],
      "name": "ECDSAInvalidSignature",
      "type": "error"
    },
    {
      "inputs": [
        {
          "internalType": "uint256",
          "name": "length",
          "type": "uint256"
        }
      ],
      "name": "ECDSAInvalidSignatureLength",
      "type": "error"
    },
    {
      "inputs": [
        {
          "internalType": "bytes32",
          "name": "s",
          "type": "bytes32"
        }
      ],
      "name": "ECDSAInvalidSignatureS",
      "type": "error"
    },
    {
      "inputs": [
        {
          "internalType": "address",
          "name": "implementation",
          "type": "address"
        }
      ],
      "name": "ERC1967InvalidImplementation",
      "type": "error"
    },
    {
      "inputs": [],
      "name": "ERC1967NonPayable",
      "type": "error"
    },
    {
      "inputs": [],
      "name": "FailedCall",
      "type": "error"
    },
    {
      "inputs": [],
      "name": "InvalidInitialization",
      "type": "error"
    },
    {
      "inputs": [],
      "name": "NotInitializing",
      "type": "error"
    },
    {
      "inputs": [
        {
          "internalType": "address",
          "name": "owner",
          "type": "address"
        }
      ],
      "name": "OwnableInvalidOwner",
      "type": "error"
    },
    {
      "inputs": [
        {
          "internalType": "address",
          "name": "account",
          "type": "address"
        }
      ],
      "name": "OwnableUnauthorizedAccount",
      "type": "error"
    },
    {
      "inputs": [],
      "name": "UUPSUnauthorizedCallContext",
      "type": "error"
    },
    {
      "inputs": [
        {
          "internalType": "bytes32",
          "name": "slot",
          "type": "bytes32"
        }
      ],
      "name": "UUPSUnsupportedProxiableUUID",
      "type": "error"
    },
    {
      "anonymous": false,
      "inputs": [
        {
          "indexed": true,
          "internalType": "address",
          "name": "owner",
          "type": "address"
        },
        {
          "indexed": true,
          "internalType": "address",
          "name": "user",
          "type": "address"
        },
        {
          "indexed": false,
          "internalType": "uint256",
          "name": "durationInMinutes",
          "type": "uint256"
        }
      ],
      "name": "AccessGranted",
      "type": "event"
    },
    {
      "anonymous": false,
      "inputs": [
        {
          "indexed": true,
          "internalType": "address",
          "name": "owner",
          "type": "address"
        },
        {
          "indexed": true,
          "internalType": "address",
          "name": "user",
          "type": "address"
        }
      ],
      "name": "AccessRevoked",
      "type": "event"
    },
    {
      "anonymous": false,
      "inputs": [
        {
          "indexed": true,
          "internalType": "address",
          "name": "user",
          "type": "address"
        },
        {
          "indexed": true,
          "internalType": "address",
          "name": "sender",
          "type": "address"
        },
        {
          "indexed": false,
          "internalType": "string",
          "name": "url",
          "type": "string"
        },
        {
          "indexed": false,
          "internalType": "string",
          "name": "category",
          "type": "string"
        }
      ],
      "name": "FileAdded",
      "type": "event"
    },
    {
      "anonymous": false,
      "inputs": [
        {
          "indexed": true,
          "internalType": "address",
          "name": "user",
          "type": "address"
        },
        {
          "indexed": false,
          "internalType": "string",
          "name": "url",
          "type": "string"
        }
      ],
      "name": "FileDeleted",
      "type": "event"
    },
    {
      "anonymous": false,
      "inputs": [
        {
          "indexed": true,
          "internalType": "address",
          "name": "signer",
          "type": "address"
        },
        {
          "indexed": false,
          "internalType": "string",
          "name": "url",
          "type": "string"
        },
        {
          "indexed": false,
          "internalType": "bytes32",
          "name": "fileHash",
          "type": "bytes32"
        }
      ],
      "name": "FileSigned",
      "type": "event"
    },
    {
      "anonymous": false,
      "inputs": [
        {
          "indexed": true,
          "internalType": "address",
          "name": "user",
          "type": "address"
        },
        {
          "indexed": false,
          "internalType": "string",
          "name": "oldUrl",
          "type": "string"
        },
        {
          "indexed": false,
          "internalType": "string",
          "name": "newUrl",
          "type": "string"
        }
      ],
      "name": "FileUpdated",
      "type": "event"
    },
    {
      "anonymous": false,
      "inputs": [
        {
          "indexed": false,
          "internalType": "uint64",
          "name": "version",
          "type": "uint64"
        }
      ],
      "name": "Initialized",
      "type": "event"
    },
    {
      "anonymous": false,
      "inputs": [
        {
          "indexed": true,
          "internalType": "address",
          "name": "previousOwner",
          "type": "address"
        },
        {
          "indexed": true,
          "internalType": "address",
          "name": "newOwner",
          "type": "address"
        }
      ],
      "name": "OwnershipTransferred",
      "type": "event"
    },
    {
      "anonymous": false,
      "inputs": [
        {
          "indexed": true,
          "internalType": "address",
          "name": "user",
          "type": "address"
        },
        {
          "indexed": false,
          "internalType": "string",
          "name": "publicKey",
          "type": "string"
        }
      ],
      "name": "PublicKeyPublished",
      "type": "event"
    },
    {
      "anonymous": false,
      "inputs": [
        {
          "indexed": true,
          "internalType": "address",
          "name": "implementation",
          "type": "address"
        }
      ],
      "name": "Upgraded",
      "type": "event"
    },
    {
      "inputs": [],
      "name": "UPGRADE_INTERFACE_VERSION",
      "outputs": [
        {
          "internalType": "string",
          "name": "",
          "type": "string"
        }
      ],
      "stateMutability": "view",
      "type": "function"
    },
    {
      "inputs": [
        {
          "internalType": "address",
          "name": "",
          "type": "address"
        },
        {
          "internalType": "address",
          "name": "",
          "type": "address"
        }
      ],
      "name": "accessExpiry",
      "outputs": [
        {
          "internalType": "uint256",
          "name": "",
          "type": "uint256"
        }
      ],
      "stateMutability": "view",
      "type": "function"
    },
    {
      "inputs": [
        {
          "internalType": "string",
          "name": "url",
          "type": "string"
        },
        {
          "internalType": "string",
          "name": "category",
          "type": "string"
        }
      ],
      "name": "add",
      "outputs": [],
      "stateMutability": "nonpayable",
      "type": "function"
    },
    {
      "inputs": [
        {
          "internalType": "string[]",
          "name": "urls",
          "type": "string[]"
        },
        {
          "internalType": "string",
          "name": "category",
          "type": "string"
        }
      ],
      "name": "addBatch",
      "outputs": [],
      "stateMutability": "nonpayable",
      "type": "function"
    },
    {
      "inputs": [
        {
          "internalType": "string",
          "name": "url",
          "type": "string"
        },
        {
          "internalType": "string",
          "name": "category",
          "type": "string"
        },
        {
          "internalType": "bytes32",
          "name": "fileHash",
          "type": "bytes32"
        },
        {
          "internalType": "bytes",
          "name": "signature",
          "type": "bytes"
        },
        {
          "internalType": "string",
          "name": "encryptedKey",
          "type": "string"
        }
      ],
      "name": "addWithE2EE",
      "outputs": [],
      "stateMutability": "nonpayable",
      "type": "function"
    },
    {
      "inputs": [
        {
          "internalType": "string",
          "name": "url",
          "type": "string"
        },
        {
          "internalType": "string",
          "name": "category",
          "type": "string"
        },
        {
          "internalType": "bytes32",
          "name": "fileHash",
          "type": "bytes32"
        },
        {
          "internalType": "bytes",
          "name": "signature",
          "type": "bytes"
        }
      ],
      "name": "addWithSignature",
      "outputs": [],
      "stateMutability": "nonpayable",
      "type": "function"
    },
    {
      "inputs": [
        {
          "internalType": "address",
          "name": "user",
          "type": "address"
        },
        {
          "internalType": "uint256",
          "name": "durationInMinutes",
          "type": "uint256"
        }
      ],
      "name": "allow",
      "outputs": [],
      "stateMutability": "nonpayable",
      "type": "function"
    },
    {
      "inputs": [
        {
          "internalType": "string",
          "name": "url",
          "type": "string"
        }
      ],
      "name": "deleteFile",
      "outputs": [],
      "stateMutability": "nonpayable",
      "type": "function"
    },
    {
      "inputs": [
        {
          "internalType": "address",
          "name": "user",
          "type": "address"
        }
      ],
      "name": "disallow",
      "outputs": [],
      "stateMutability": "nonpayable",
      "type": "function"
    },
    {
      "inputs": [
        {
          "internalType": "address",
          "name": "_user",
          "type": "address"
        }
      ],
      "name": "display",
      "outputs": [
        {
          "components": [
            {
              "internalType": "string",
              "name": "url",
              "type": "string"
            },
            {
              "internalType": "string",
              "name": "category",
              "type": "string"
            },
            {
              "internalType": "address",
              "name": "sender",
              "type": "address"
            }
          ],
          "internalType": "struct UploadUpgradeableV6.FileInfo[]",
          "name": "",
          "type": "tuple[]"
        }
      ],
      "stateMutability": "view",
      "type": "function"
    },
    {
      "inputs": [
        {
          "internalType": "address",
          "name": "_user",
          "type": "address"
        },
        {
          "internalType": "uint256",
          "name": "offset",
          "type": "uint256"
        },
        {
          "internalType": "uint256",
          "name": "limit",
          "type": "uint256"
        }
      ],
      "name": "displayPage",
      "outputs": [
        {
          "components": [
            {
              "internalType": "string",
              "name": "url",
              "type": "string"
            },
            {
              "internalType": "string",
              "name": "category",
              "type": "string"
            },
            {
              "internalType": "address",
              "name": "sender",
              "type": "address"
            }
          ],
          "internalType": "struct UploadUpgradeableV6.FileInfo[]",
          "name": "",
          "type": "tuple[]"
        }
      ],
      "stateMutability": "view",
      "type": "function"
    },
    {
      "inputs": [
        {
          "internalType": "string",
          "name": "",
          "type": "string"
        }
      ],
      "name": "encryptedAESKeys",
      "outputs": [
        {
          "internalType": "string",
          "name": "",
          "type": "string"
        }
      ],
      "stateMutability": "view",
      "type": "function"
    },
    {
      "inputs": [
        {
          "internalType": "address",
          "name": "",
          "type": "address"
        }
      ],
      "name": "encryptionKeyNonces",
      "outputs": [
        {
          "internalType": "uint256",
          "name": "",
          "type": "uint256"
        }
      ],
      "stateMutability": "view",
      "type": "function"
    },
    {
      "inputs": [
        {
          "internalType": "address",
          "name": "",
          "type": "address"
        }
      ],
      "name": "encryptionPublicKeys",
      "outputs": [
        {
          "internalType": "string",
          "name": "",
          "type": "string"
        }
      ],
      "stateMutability": "view",
      "type": "function"
    },
    {
      "inputs": [
        {
          "internalType": "string",
          "name": "",
          "type": "string"
        }
      ],
      "name": "fileHashes",
      "outputs": [
        {
          "internalType": "bytes32",
          "name": "",
          "type": "bytes32"
        }
      ],
      "stateMutability": "view",
      "type": "function"
    },
    {
      "inputs": [
        {
          "internalType": "string",
          "name": "",
          "type": "string"
        }
      ],
      "name": "fileSignatures",
      "outputs": [
        {
          "internalType": "bytes",
          "name": "",
          "type": "bytes"
        }
      ],
      "stateMutability": "view",
      "type": "function"
    },
    {
      "inputs": [
        {
          "internalType": "string",
          "name": "",
          "type": "string"
        },
        {
          "internalType": "uint256",
          "name": "",
          "type": "uint256"
        }
      ],
      "name": "fileVersions",
      "outputs": [
        {
          "internalType": "string",
          "name": "url",
          "type": "string"
        },
        {
          "internalType": "uint256",
          "name": "timestamp",
          "type": "uint256"
        }
      ],
      "stateMutability": "view",
      "type": "function"
    },
    {
      "inputs": [
        {
          "internalType": "address",
          "name": "_user",
          "type": "address"
        }
      ],
      "name": "getFileCount",
      "outputs": [
        {
          "internalType": "uint256",
          "name": "",
          "type": "uint256"
        }
      ],
      "stateMutability": "view",
      "type": "function"
    },
    {
      "inputs": [
        {
          "internalType": "string",
          "name": "currentUrl",
          "type": "string"
        }
      ],
      "name": "getFileHistory",
      "outputs": [
        {
          "components": [
            {
              "internalType": "string",
              "name": "url",
              "type": "string"
            },
            {
              "internalType": "uint256",
              "name": "timestamp",
              "type": "uint256"
            }
          ],
          "internalType": "struct UploadUpgradeableV6.Version[]",
          "name": "",
          "type": "tuple[]"
        }
      ],
      "stateMutability": "view",
      "type": "function"
    },
    {
      "inputs": [],
      "name": "initialize",
      "outputs": [],
      "stateMutability": "nonpayable",
      "type": "function"
    },
    {
      "inputs": [
        {
          "internalType": "string",
          "name": "",
          "type": "string"
        }
      ],
      "name": "originalUrls",
      "outputs": [
        {
          "internalType": "string",
          "name": "",
          "type": "string"
        }
      ],
      "stateMutability": "view",
      "type": "function"
    },
    {
      "inputs": [],
      "name": "owner",
      "outputs": [
        {
          "internalType": "address",
          "name": "",
          "type": "address"
        }
      ],
      "stateMutability": "view",
      "type": "function"
    },
    {
      "inputs": [
        {
          "internalType": "address",
          "name": "",
          "type": "address"
        },
        {
          "internalType": "address",
          "name": "",
          "type": "address"
        }
      ],
      "name": "ownership",
      "outputs": [
        {
          "internalType": "bool",
          "name": "",
          "type": "bool"
        }
      ],
      "stateMutability": "view",
      "type": "function"
    },
    {
      "inputs": [],
      "name": "proxiableUUID",
      "outputs": [
        {
          "internalType": "bytes32",
          "name": "",
          "type": "bytes32"
        }
      ],
      "stateMutability": "view",
      "type": "function"
    },
    {
      "inputs": [],
      "name": "renounceOwnership",
      "outputs": [],
      "stateMutability": "nonpayable",
      "type": "function"
    },
    {
      "inputs": [
        {
          "internalType": "address",
          "name": "receiver",
          "type": "address"
        },
        {
          "internalType": "string",
          "name": "url",
          "type": "string"
        },
        {
          "internalType": "string",
          "name": "category",
          "type": "string"
        }
      ],
      "name": "sendFileToReceiver",
      "outputs": [],
      "stateMutability": "nonpayable",
      "type": "function"
    },
    {
      "inputs": [
        {
          "internalType": "address",
          "name": "receiver",
          "type": "address"
        },
        {
          "internalType": "string[]",
          "name": "urls",
          "type": "string[]"
        },
        {
          "internalType": "string",
          "name": "category",
          "type": "string"
        }
      ],
      "name": "sendFileToReceiverBatch",
      "outputs": [],
      "stateMutability": "nonpayable",
      "type": "function"
    },
    {
      "inputs": [
        {
          "internalType": "address",
          "name": "receiver",
          "type": "address"
        },
        {
          "internalType": "string",
          "name": "url",
          "type": "string"
        },
        {
          "internalType": "string",
          "name": "category",
          "type": "string"
        },
        {
          "internalType": "bytes32",
          "name": "fileHash",
          "type": "bytes32"
        },
        {
          "internalType": "bytes",
          "name": "signature",
          "type": "bytes"
        },
        {
          "internalType": "string",
          "name": "encryptedKey",
          "type": "string"
        }
      ],
      "name": "sendFileToReceiverWithE2EE",
      "outputs": [],
      "stateMutability": "nonpayable",
      "type": "function"
    },
    {
      "inputs": [
        {
          "internalType": "address",
          "name": "receiver",
          "type": "address"
        },
        {
          "internalType": "string",
          "name": "url",
          "type": "string"
        },
        {
          "internalType": "string",
          "name": "category",
          "type": "string"
        },
        {
          "internalType": "bytes32",
          "name": "fileHash",
          "type": "bytes32"
        },
        {
          "internalType": "bytes",
          "name": "signature",
          "type": "bytes"
        }
      ],
      "name": "sendFileToReceiverWithSignature",
      "outputs": [],
      "stateMutability": "nonpayable",
      "type": "function"
    },
    {
      "inputs": [
        {
          "internalType": "string",
          "name": "key",
          "type": "string"
        },
        {
          "internalType": "bytes",
          "name": "signature",
          "type": "bytes"
        }
      ],
      "name": "setEncryptionPublicKey",
      "outputs": [],
      "stateMutability": "nonpayable",
      "type": "function"
    },
    {
      "inputs": [],
      "name": "shareAccess",
      "outputs": [
        {
          "components": [
            {
              "internalType": "address",
              "name": "user",
              "type": "address"
            },
            {
              "internalType": "bool",
              "name": "access",
              "type": "bool"
            }
          ],
          "internalType": "struct UploadUpgradeableV6.Access[]",
          "name": "",
          "type": "tuple[]"
        }
      ],
      "stateMutability": "view",
      "type": "function"
    },
    {
      "inputs": [
        {
          "internalType": "address",
          "name": "newOwner",
          "type": "address"
        }
      ],
      "name": "transferOwnership",
      "outputs": [],
      "stateMutability": "nonpayable",
      "type": "function"
    },
    {
      "inputs": [
        {
          "internalType": "string",
          "name": "currentUrl",
          "type": "string"
        },
        {
          "internalType": "string",
          "name": "newUrl",
          "type": "string"
        },
        {
          "internalType": "bytes32",
          "name": "newFileHash",
          "type": "bytes32"
        },
        {
          "internalType": "bytes",
          "name": "newSignature",
          "type": "bytes"
        },
        {
          "internalType": "string",
          "name": "newEncryptedKey",
          "type": "string"
        }
      ],
      "name": "updateFile",
      "outputs": [],
      "stateMutability": "nonpayable",
      "type": "function"
    },
    {
      "inputs": [
        {
          "internalType": "address",
          "name": "newImplementation",
          "type": "address"
        },
        {
          "internalType": "bytes",
          "name": "data",
          "type": "bytes"
        }
      ],
      "name": "upgradeToAndCall",
      "outputs": [],
      "stateMutability": "payable",
      "type": "function"
    }
  ],
  "bytecode": "0x60a06040523060805234801562000014575f80fd5b506200001f62000025565b620000d9565b7ff0c57e16840df040f15088dc2f81fe391c3923bec73e23a9662efc9c229c6a00805468010000000000000000900460ff1615620000765760405163f92ee8a960e01b815260040160405180910390fd5b80546001600160401b0390811614620000d65780546001600160401b0319166001600160401b0390811782556040519081527fc7f505b2f371ae2175ee4913f4499e1f2633a7b5936321eed1cdaeb6115181d29060200160405180910390a15b50565b608051614685620001005f395f8181612e9901528181612ec2015261300601526146855ff3fe6080604052600436106101f1575f3560e01c8063974fe59111610108578063b90fec791161009d578063ebdf86ca1161006d578063ebdf86ca1461062b578063ede808241461064a578063ee9125bc14610669578063f2fde38b14610695578063fa001d7b146106b4575f80fd5b8063b90fec79146105ad578063bc8bef81146105cc578063eb39113f146105ed578063eb6d4ff41461060c575f80fd5b8063a9910054116100d8578063a991005414610520578063a9ed9cb81461053f578063ad3cb1cc1461055e578063b66cd9e01461058e575f80fd5b8063974fe59114610460578063a2854fb3146104a9578063a303958c146104c8578063a34de3db146104f5575f80fd5b806352d1902d116101895780636fa811e0116101595780636fa811e01461039d578063715018a6146103bc5780638129fc1c146103d05780638da5cb5b146103e457806391f205961461042a575f80fd5b806352d1902d1461032c578063547d39a114610340578063570b02571461035f5780636c6f31f21461037e575f80fd5b8063438efa48116101c4578063438efa481461028957806345275252146102a8578063456912a9146102ed5780634f1ef28614610319575f80fd5b80631135d522146101f557806314d7b7741461022a57806315448ee81461024b57806329411af01461026a575b5f80fd5b348015610200575f80fd5b5061021461020f36600461372b565b6106d3565b60405161022191906137a8565b60405180910390f35b348015610235575f80fd5b50610249610244366004613886565b610a44565b005b348015610256575f80fd5b50610249610265366004613900565b610bc6565b348015610275575f80fd5b50610249610284366004613a16565b610e22565b348015610294575f80fd5b506102496102a3366004613a7c565b610f9e565b3480156102b3575f80fd5b506102df6102c2366004613b64565b805160208183018101805160078252928201919093012091525481565b604051908152602001610221565b3480156102f8575f80fd5b5061030c610307366004613b64565b61118e565b6040516102219190613b9d565b610249610327366004613baf565b611231565b348015610337575f80fd5b506102df611250565b34801561034b575f80fd5b5061030c61035a366004613b64565b61126b565b34801561036a575f80fd5b5061030c610379366004613c0c565b61128f565b348015610389575f80fd5b50610249610398366004613c25565b6112a7565b3480156103a8575f80fd5b506102496103b7366004613c4d565b611492565b3480156103c7575f80fd5b506102496116c2565b3480156103db575f80fd5b506102496116d5565b3480156103ef575f80fd5b507f9016d09d72d40fdae2fd8ceac6b6234c7706214fd39c1cd1e609a0528c199300546040516001600160a01b039091168152602001610221565b348015610435575f80fd5b506102df610444366004613cf8565b600260209081525f928352604080842090915290825290205481565b34801561046b575f80fd5b5061049961047a366004613cf8565b600160209081525f928352604080842090915290825290205460ff1681565b6040519015158152602001610221565b3480156104b4575f80fd5b5061030c6104c3366004613b64565b6117ca565b3480156104d3575f80fd5b506104e76104e2366004613d29565b6117ee565b604051610221929190613d6a565b348015610500575f80fd5b506102df61050f366004613c0c565b600c6020525f908152604090205481565b34801561052b575f80fd5b5061024961053a366004613d8b565b6118bf565b34801561054a575f80fd5b50610249610559366004613c0c565b611a5a565b348015610569575f80fd5b5061030c604051806040016040528060058152602001640352e302e360dc1b81525081565b348015610599575f80fd5b506102496105a8366004613dc9565b611c9e565b3480156105b8575f80fd5b506102496105c7366004613e64565b611e4b565b3480156105d7575f80fd5b506105e0612293565b6040516102219190613f29565b3480156105f8575f80fd5b50610214610607366004613c0c565b612450565b348015610617575f80fd5b50610249610626366004613f82565b6126a4565b348015610636575f80fd5b50610249610645366004613f82565b612814565b348015610655575f80fd5b50610249610664366004613e64565b612935565b348015610674575f80fd5b50610688610683366004613d8b565b612b14565b6040516102219190613fb7565b3480156106a0575f80fd5b506102496106af366004613c0c565b612d84565b3480156106bf575f80fd5b506102df6106ce366004613c0c565b612dc1565b6001600160a01b0383165f9081526001602090815260408083203384529091528120546060919060ff16801561075457506001600160a01b0385165f908152600260209081526040808320338452909152902054158061075457506001600160a01b0385165f90815260026020908152604080832033845290915290205442105b90506001600160a01b03851633148061076a5750805b61078f5760405162461bcd60e51b81526004016107869061401f565b60405180910390fd5b6001600160a01b0385165f908152602081905260409020548085106107fb57604080515f80825260208201909252906107f1565b604080516060808201835280825260208201525f918101919091528152602001906001900390816107c35790505b5092505050610a3d565b5f6108068587614062565b9050818111156108135750805b5f61081e8783614075565b90505f816001600160401b0381111561083957610839613ac0565b60405190808252806020026020018201604052801561088557816020015b604080516060808201835280825260208201525f918101919091528152602001906001900390816108575790505b5090505f5b82811015610a35576001600160a01b038a165f9081526020819052604090206108b3828b614062565b815481106108c3576108c3614088565b905f5260205f2090600302016040518060600160405290815f820180546108e99061409c565b80601f01602080910402602001604051908101604052809291908181526020018280546109159061409c565b80156109605780601f1061093757610100808354040283529160200191610960565b820191905f5260205f20905b81548152906001019060200180831161094357829003601f168201915b505050505081526020016001820180546109799061409c565b80601f01602080910402602001604051908101604052809291908181526020018280546109a59061409c565b80156109f05780601f106109c7576101008083540402835291602001916109f0565b820191905f5260205f20905b8154815290600101906020018083116109d357829003601f168201915b5050509183525050600291909101546001600160a01b03166020909101528251839083908110610a2257610a22614088565b602090810291909101015260010161088a565b509450505050505b9392505050565b336001600160a01b03861603610a9c5760405162461bcd60e51b815260206004820152601c60248201527f55736520616464282920666f7220796f7572206f776e2066696c6573000000006044820152606401610786565b6001600160a01b0385165f908152602081815260409182902082516080601f8801849004909302810183019093526060830186815290929182919088908890819085018382808284375f92019190915250505090825250604080516020601f8701819004810282018101909252858152918101919086908690819084018382808284375f920182905250938552505033602093840152508354600181018555938152208151919260030201908190610b54908261412c565b5060208201516001820190610b69908261412c565b5060409182015160029190910180546001600160a01b0319166001600160a01b03928316179055905133918716905f805160206145f083398151915290610bb790889088908890889061420a565b60405180910390a35050505050565b336001600160a01b038b1603610c2a5760405162461bcd60e51b8152602060048201526024808201527f557365206164645769746845324545282920666f7220796f7572206f776e2066604482015263696c657360e01b6064820152608401610786565b6001600160a01b038a165f908152602081815260409182902082516080601f8d0184900490930281018301909352606083018b81529092918291908d908d90819085018382808284375f92019190915250505090825250604080516020601f8c018190048102820181019092528a815291810191908b908b90819084018382808284375f920182905250938552505033602093840152508354600181018555938152208151919260030201908190610ce2908261412c565b5060208201516001820190610cf7908261412c565b5060409182015160029190910180546001600160a01b0319166001600160a01b03909216919091179055518590600790610d34908c908c9061423b565b908152602001604051809103902081905550838360068b8b604051610d5a92919061423b565b90815260200160405180910390209182610d7592919061424a565b50818160098b8b604051610d8a92919061423b565b90815260200160405180910390209182610da592919061424a565b50336001600160a01b03168a6001600160a01b03165f805160206145f08339815191528b8b8b8b604051610ddc949392919061420a565b60405180910390a3336001600160a01b03165f805160206146308339815191528a8a88604051610e0e939291906142fe565b60405180910390a250505050505050505050565b5f5b83811015610f9757335f90815260208190526040908190208151606081019092529080878785818110610e5957610e59614088565b9050602002810190610e6b9190614321565b8080601f0160208091040260200160405190810160405280939291908181526020018383808284375f92019190915250505090825250604080516020601f8801819004810282018101909252868152918101919087908790819084018382808284375f920182905250938552505033602093840152508354600181018555938152208151919260030201908190610f02908261412c565b5060208201516001820190610f17908261412c565b5060409190910151600290910180546001600160a01b0319166001600160a01b0390921691909117905533805f805160206145f0833981519152878785818110610f6357610f63614088565b9050602002810190610f759190614321565b8787604051610f87949392919061420a565b60405180910390a3600101610e24565b5050505050565b336001600160a01b038616036110005760405162461bcd60e51b815260206004820152602160248201527f557365206164644261746368282920666f7220796f7572206f776e2066696c656044820152607360f81b6064820152608401610786565b5f5b83811015611186575f80876001600160a01b03166001600160a01b031681526020019081526020015f20604051806060016040528087878581811061104957611049614088565b905060200281019061105b9190614321565b8080601f0160208091040260200160405190810160405280939291908181526020018383808284375f92019190915250505090825250604080516020601f8801819004810282018101909252868152918101919087908790819084018382808284375f9201829052509385525050336020938401525083546001810185559381522081519192600302019081906110f2908261412c565b5060208201516001820190611107908261412c565b5060409190910151600290910180546001600160a01b0319166001600160a01b03928316179055339087165f805160206145f083398151915287878581811061115257611152614088565b90506020028101906111649190614321565b8787604051611176949392919061420a565b60405180910390a3600101611002565b505050505050565b8051602081830181018051600682529282019190930120915280546111b29061409c565b80601f01602080910402602001604051908101604052809291908181526020018280546111de9061409c565b80156112295780601f1061120057610100808354040283529160200191611229565b820191905f5260205f20905b81548152906001019060200180831161120c57829003601f168201915b505050505081565b611239612e8e565b61124282612f32565b61124c8282612f3a565b5050565b5f611259612ffb565b505f8051602061461083398151915290565b8051602081830181018051600982529282019190930120915280546111b29061409c565b60086020525f9081526040902080546111b29061409c565b336001600160a01b038316036112ff5760405162461bcd60e51b815260206004820152601a60248201527f43616e6e6f74207368617265207769746820796f757273656c660000000000006044820152606401610786565b335f9081526001602081815260408084206001600160a01b0387168552909152909120805460ff1916909117905580156113705761133e81603c614363565b6113489042614062565b335f9081526002602090815260408083206001600160a01b0387168452909152902055611394565b335f9081526002602090815260408083206001600160a01b03861684529091528120555b335f9081526005602090815260408083206001600160a01b038616845290915290205460ff1661144e57335f81815260036020908152604082208054600180820183558285529284200180546001600160a01b0319166001600160a01b0388161790559290915290546114079190614075565b335f8181526004602090815260408083206001600160a01b0388168085529083528184209590955592825260058152828220938252929092529020805460ff191660011790555b6040518181526001600160a01b0383169033907f65d0cc1e52d49938ca4ad9f423c79c1b84d914b9a683fbc5d3f93ac3cc5635f59060200160405180910390a35050565b336001600160a01b038916036114fc5760405162461bcd60e51b815260206004820152602960248201527f55736520616464576974685369676e6174757265282920666f7220796f7572206044820152686f776e2066696c657360b81b6064820152608401610786565b6001600160a01b0388165f908152602081815260409182902082516080601f8b0184900490930281018301909352606083018981529092918291908b908b90819085018382808284375f92019190915250505090825250604080516020601f8a01819004810282018101909252888152918101919089908990819084018382808284375f9201829052509385525050336020938401525083546001810185559381522081519192600302019081906115b4908261412c565b50602082015160018201906115c9908261412c565b5060409182015160029190910180546001600160a01b0319166001600160a01b03909216919091179055518390600790611606908a908a9061423b565b90815260200160405180910390208190555081816006898960405161162c92919061423b565b9081526020016040518091039020918261164792919061424a565b50336001600160a01b0316886001600160a01b03165f805160206145f08339815191528989898960405161167e949392919061420a565b60405180910390a3336001600160a01b03165f805160206146308339815191528888866040516116b0939291906142fe565b60405180910390a25050505050505050565b6116ca613044565b6116d35f61309f565b565b5f6116de61310f565b805490915060ff600160401b82041615906001600160401b03165f811580156117045750825b90505f826001600160401b0316600114801561171f5750303b155b90508115801561172d575080155b1561174b5760405163f92ee8a960e01b815260040160405180910390fd5b845467ffffffffffffffff19166001178555831561177557845460ff60401b1916600160401b1785555b61177e33613137565b8315610f9757845460ff60401b19168555604051600181527fc7f505b2f371ae2175ee4913f4499e1f2633a7b5936321eed1cdaeb6115181d29060200160405180910390a15050505050565b8051602081830181018051600a82529282019190930120915280546111b29061409c565b8151602081840181018051600b825292820191850191909120919052805482908110611818575f80fd5b905f5260205f2090600202015f9150915050805f0180546118389061409c565b80601f01602080910402602001604051908101604052809291908181526020018280546118649061409c565b80156118af5780601f10611886576101008083540402835291602001916118af565b820191905f5260205f20905b81548152906001019060200180831161189257829003601f168201915b5050505050908060010154905082565b335f908152602081905260408120905b8154811015611a545783836040516118e892919061423b565b604051809103902082828154811061190257611902614088565b905f5260205f2090600302015f0160405161191d919061437a565b604051809103902003611a4c578154829061193a90600190614075565b8154811061194a5761194a614088565b905f5260205f20906003020182828154811061196857611968614088565b5f91825260209091206003909102018061198283826143ec565b50600181810190611995908401826143ec565b50600291820154910180546001600160a01b0319166001600160a01b0390921691909117905581548290806119cc576119cc6144b1565b5f828152602081205f19909201916003830201906119ea82826136c6565b6119f7600183015f6136c6565b5060020180546001600160a01b0319169055905560405133907f14a51c77a00d5c4c3ccc7a4df74f169088c4d4d04859d176729645e53c7b895c90611a3f90879087906144c5565b60405180910390a2611a54565b6001016118cf565b50505050565b335f9081526001602090815260408083206001600160a01b038516845290915290205460ff16611acc5760405162461bcd60e51b815260206004820152601960248201527f5573657220646f6573206e6f74206861766520616363657373000000000000006044820152606401610786565b335f8181526001602090815260408083206001600160a01b038616808552908352818420805460ff1916905593835260058252808320938352929052205460ff1615611c6657335f8181526004602090815260408083206001600160a01b03861684528252808320549383526003909152812054611b4c90600190614075565b335f9081526003602052604081208054929350909183908110611b7157611b71614088565b5f9182526020808320909101543383526003909152604090912080546001600160a01b039092169250829185908110611bac57611bac614088565b5f91825260208083209190910180546001600160a01b0319166001600160a01b0394851617905533808352600482526040808420948616845293825283832087905582526003905220805480611c0457611c046144b1565b5f828152602080822083015f1990810180546001600160a01b0319169055909201909255338083526005825260408084206001600160a01b038916808652908452818520805460ff191690559184526004835280842091845291528120555050505b6040516001600160a01b0382169033907f825c8be24eb0df19500f63e86c29e7d0d951e73056b889b891d85e40938d9b6e905f90a350565b335f908152602081815260409182902082516080601f8b0184900490930281018301909352606083018981529092918291908b908b90819085018382808284375f92019190915250505090825250604080516020601f8a01819004810282018101909252888152918101919089908990819084018382808284375f920182905250938552505033602093840152508354600181018555938152208151919260030201908190611d4d908261412c565b5060208201516001820190611d62908261412c565b5060409182015160029190910180546001600160a01b0319166001600160a01b03909216919091179055518390600790611d9f908a908a9061423b565b908152602001604051809103902081905550818160068989604051611dc592919061423b565b90815260200160405180910390209182611de092919061424a565b50604051339081905f805160206145f083398151915290611e08908b908b908b908b9061420a565b60405180910390a3336001600160a01b03165f80516020614630833981519152888886604051611e3a939291906142fe565b60405180910390a250505050505050565b335f90815260208190526040812090805b8254811015611ef8578b8b604051611e7592919061423b565b6040518091039020838281548110611e8f57611e8f614088565b905f5260205f2090600302015f01604051611eaa919061437a565b604051809103902003611ef0578989848381548110611ecb57611ecb614088565b905f5260205f2090600302015f019182611ee692919061424a565b5060019150611ef8565b600101611e5c565b5080611f375760405162461bcd60e51b815260206004820152600e60248201526d119a5b19481b9bdd08199bdd5b9960921b6044820152606401610786565b5f600a8c8c604051611f4a92919061423b565b90815260200160405180910390208054611f639061409c565b80601f0160208091040260200160405190810160405280929190818152602001828054611f8f9061409c565b8015611fda5780601f10611fb157610100808354040283529160200191611fda565b820191905f5260205f20905b815481529060010190602001808311611fbd57829003601f168201915b5050505050905080515f036120f6578b8b8080601f0160208091040260200160405190810160405280939291908181526020018383808284375f92019190915250506040519293508392600a925061203691508f908f9061423b565b90815260200160405180910390209081612050919061412c565b50600b8160405161206191906144d8565b908152602001604051809103902060405180604001604052808e8e8080601f0160208091040260200160405190810160405280939291908181526020018383808284375f920191909152505050908252506020016120c0600142614075565b905281546001810183555f928352602090922081519192600202019081906120e8908261412c565b506020820151816001015550505b80600a8b8b60405161210992919061423b565b90815260200160405180910390209081612123919061412c565b50600b8160405161213491906144d8565b908152602001604051809103902060405180604001604052808c8c8080601f0160208091040260200160405190810160405280939291908181526020018383808284375f9201829052509385525050426020938401525083546001810185559381522081519192600202019081906121ac908261412c565b506020820151816001015550508760078b8b6040516121cc92919061423b565b908152602001604051809103902081905550868660068c8c6040516121f292919061423b565b9081526020016040518091039020918261220d92919061424a565b50848460098c8c60405161222292919061423b565b9081526020016040518091039020918261223d92919061424a565b50336001600160a01b03167feed1d9aeac219cfdbb0e954790128fda20008d428c716ff4d982f2218cb9c9ee8d8d8d8d60405161227d949392919061420a565b60405180910390a2505050505050505050505050565b335f9081526003602090815260408083208054825181850281018501909352808352606094938301828280156122f057602002820191905f5260205f20905b81546001600160a01b031681526001909101906020018083116122d2575b505050505090505f81516001600160401b0381111561231157612311613ac0565b60405190808252806020026020018201604052801561235557816020015b604080518082019091525f808252602082015281526020019060019003908161232f5790505b5090505f5b8251811015612449575f83828151811061237657612376614088565b602090810291909101810151335f9081526001835260408082206001600160a01b03841683529093529182205490925060ff1680156124005750335f9081526002602090815260408083206001600160a01b038616845290915290205415806124005750335f9081526002602090815260408083206001600160a01b038616845290915290205442105b90506040518060400160405280836001600160a01b0316815260200182151581525084848151811061243457612434614088565b6020908102919091010152505060010161235a565b5092915050565b6001600160a01b0381165f9081526001602090815260408083203384529091528120546060919060ff1680156124d157506001600160a01b0383165f90815260026020908152604080832033845290915290205415806124d157506001600160a01b0383165f90815260026020908152604080832033845290915290205442105b90506001600160a01b0383163314806124e75750805b6125035760405162461bcd60e51b81526004016107869061401f565b6001600160a01b0383165f9081526020818152604080832080548251818502810185019093528083529193909284015b82821015612698578382905f5260205f2090600302016040518060600160405290815f820180546125639061409c565b80601f016020809104026020016040519081016040528092919081815260200182805461258f9061409c565b80156125da5780601f106125b1576101008083540402835291602001916125da565b820191905f5260205f20905b8154815290600101906020018083116125bd57829003601f168201915b505050505081526020016001820180546125f39061409c565b80601f016020809104026020016040519081016040528092919081815260200182805461261f9061409c565b801561266a5780601f106126415761010080835404028352916020019161266a565b820191905f5260205f20905b81548152906001019060200180831161264d57829003601f168201915b5050509183525050600291909101546001600160a01b03166020918201529082526001929092019101612533565b50505050915050919050565b335f908152600c60205260408120549085856126bf84613148565b6040516020016126d1939291906144f3565b60405160208183030381529060405290505f6126ec826131d7565b90505f61272e8287878080601f0160208091040260200160405190810160405280939291908181526020018383808284375f9201919091525061321192505050565b90506001600160a01b03811633146127a05760405162461bcd60e51b815260206004820152602f60248201527f496e76616c6964207369676e61747572653a207369676e657220646f6573206e60448201526e37ba1036b0ba31b41039b2b73232b960891b6064820152608401610786565b335f908152600c602052604081208054916127ba83614552565b9091555050335f9081526008602052604090206127d8888a8361424a565b50336001600160a01b03167f68a2bebc02ae7d7f916c4941a8188a48f46cb1b0f5458403638cb1eb3ab30bf889896040516116b09291906144c5565b335f908152602081815260409182902082516080601f8801849004909302810183019093526060830186815290929182919088908890819085018382808284375f92019190915250505090825250604080516020601f8701819004810282018101909252858152918101919086908690819084018382808284375f9201829052509385525050336020938401525083546001810185559381522081519192600302019081906128c3908261412c565b50602082015160018201906128d8908261412c565b5060409182015160029190910180546001600160a01b0319166001600160a01b0390921691909117905551339081905f805160206145f08339815191529061292790889088908890889061420a565b60405180910390a350505050565b335f908152602081815260409182902082516080601f8d0184900490930281018301909352606083018b81529092918291908d908d90819085018382808284375f92019190915250505090825250604080516020601f8c018190048102820181019092528a815291810191908b908b90819084018382808284375f9201829052509385525050336020938401525083546001810185559381522081519192600302019081906129e4908261412c565b50602082015160018201906129f9908261412c565b5060409182015160029190910180546001600160a01b0319166001600160a01b03909216919091179055518590600790612a36908c908c9061423b565b908152602001604051809103902081905550838360068b8b604051612a5c92919061423b565b90815260200160405180910390209182612a7792919061424a565b50818160098b8b604051612a8c92919061423b565b90815260200160405180910390209182612aa792919061424a565b50604051339081905f805160206145f083398151915290612acf908d908d908d908d9061420a565b60405180910390a3336001600160a01b03165f805160206146308339815191528a8a88604051612b01939291906142fe565b60405180910390a2505050505050505050565b60605f600a8484604051612b2992919061423b565b90815260200160405180910390208054612b429061409c565b80601f0160208091040260200160405190810160405280929190818152602001828054612b6e9061409c565b8015612bb95780601f10612b9057610100808354040283529160200191612bb9565b820191905f5260205f20905b815481529060010190602001808311612b9c57829003601f168201915b5050505050905080515f03612c70576040805160018082528183019092525f91816020015b60408051808201909152606081525f6020820152815260200190600190039081612bde579050506040805160606020601f89018190040282018101835291810187815292935091829188908890819085018382808284375f92018290525093855250505060209091018190528251839190612c5b57612c5b614088565b60200260200101819052508092505050612d7e565b600b81604051612c8091906144d8565b9081526020016040518091039020805480602002602001604051908101604052809291908181526020015f905b82821015612d76578382905f5260205f2090600202016040518060400160405290815f82018054612cdd9061409c565b80601f0160208091040260200160405190810160405280929190818152602001828054612d099061409c565b8015612d545780601f10612d2b57610100808354040283529160200191612d54565b820191905f5260205f20905b815481529060010190602001808311612d3757829003601f168201915b5050505050815260200160018201548152505081526020019060010190612cad565b505050509150505b92915050565b612d8c613044565b6001600160a01b038116612db557604051631e4fbdf760e01b81525f6004820152602401610786565b612dbe8161309f565b50565b6001600160a01b0381165f908152600160209081526040808320338452909152812054819060ff168015612e4057506001600160a01b0383165f9081526002602090815260408083203384529091529020541580612e4057506001600160a01b0383165f90815260026020908152604080832033845290915290205442105b90506001600160a01b038316331480612e565750805b612e725760405162461bcd60e51b81526004016107869061401f565b50506001600160a01b03165f9081526020819052604090205490565b306001600160a01b037f0000000000000000000000000000000000000000000000000000000000000000161480612f1457507f00000000000000000000000000000000000000000000000000000000000000006001600160a01b0316612f085f80516020614610833981519152546001600160a01b031690565b6001600160a01b031614155b156116d35760405163703e46dd60e11b815260040160405180910390fd5b612dbe613044565b816001600160a01b03166352d1902d6040518163ffffffff1660e01b8152600401602060405180830381865afa925050508015612f94575060408051601f3d908101601f19168201909252612f919181019061456a565b60015b612fbc57604051634c9c8ce360e01b81526001600160a01b0383166004820152602401610786565b5f805160206146108339815191528114612fec57604051632a87526960e21b815260048101829052602401610786565b612ff68383613239565b505050565b306001600160a01b037f000000000000000000000000000000000000000000000000000000000000000016146116d35760405163703e46dd60e11b815260040160405180910390fd5b336130767f9016d09d72d40fdae2fd8ceac6b6234c7706214fd39c1cd1e609a0528c199300546001600160a01b031690565b6001600160a01b0316146116d35760405163118cdaa760e01b8152336004820152602401610786565b7f9016d09d72d40fdae2fd8ceac6b6234c7706214fd39c1cd1e609a0528c19930080546001600160a01b031981166001600160a01b03848116918217845560405192169182907f8be0079c531659141344cd1fd0a4f28419497f9722a3daafe3b4186f6b6457e0905f90a3505050565b5f807ff0c57e16840df040f15088dc2f81fe391c3923bec73e23a9662efc9c229c6a00612d7e565b61313f61328e565b612dbe816132b3565b60605f613154836132bb565b60010190505f816001600160401b0381111561317257613172613ac0565b6040519080825280601f01601f19166020018201604052801561319c576020820181803683370190505b5090508181016020015b5f19016f181899199a1a9b1b9c1cb0b131b232b360811b600a86061a8153600a85049450846131a657509392505050565b5f6131e28251613148565b826040516020016131f4929190614581565b604051602081830303815290604052805190602001209050919050565b5f805f8061321f8686613392565b92509250925061322f82826133db565b5090949350505050565b61324282613493565b6040516001600160a01b038316907fbc7cd75a20ee27fd9adebab32041f755214dbc6bffa90cc0225b39da2e5c2d3b905f90a280511561328657612ff682826134f6565b61124c61358f565b6132966135ae565b6116d357604051631afcd79f60e31b815260040160405180910390fd5b612d8c61328e565b5f8072184f03e93ff9f4daa797ed6e38ed64bf6a1f0160401b83106132f95772184f03e93ff9f4daa797ed6e38ed64bf6a1f0160401b830492506040015b6d04ee2d6d415b85acef81000000008310613325576d04ee2d6d415b85acef8100000000830492506020015b662386f26fc10000831061334357662386f26fc10000830492506010015b6305f5e100831061335b576305f5e100830492506008015b612710831061336f57612710830492506004015b60648310613381576064830492506002015b600a8310612d7e5760010192915050565b5f805f83516041036133c9576020840151604085015160608601515f1a6133bb888285856135c7565b9550955095505050506133d4565b505081515f91506002905b9250925092565b5f8260038111156133ee576133ee6145db565b036133f7575050565b600182600381111561340b5761340b6145db565b036134295760405163f645eedf60e01b815260040160405180910390fd5b600282600381111561343d5761343d6145db565b0361345e5760405163fce698f760e01b815260048101829052602401610786565b6003826003811115613472576134726145db565b0361124c576040516335e2f38360e21b815260048101829052602401610786565b806001600160a01b03163b5f036134c857604051634c9c8ce360e01b81526001600160a01b0382166004820152602401610786565b5f8051602061461083398151915280546001600160a01b0319166001600160a01b0392909216919091179055565b60605f613503848461368f565b905080801561352457505f3d118061352457505f846001600160a01b03163b115b15613539576135316136a2565b915050612d7e565b801561356357604051639996b31560e01b81526001600160a01b0385166004820152602401610786565b3d15613576576135716136bb565b612449565b60405163d6bda27560e01b815260040160405180910390fd5b34156116d35760405163b398979f60e01b815260040160405180910390fd5b5f6135b761310f565b54600160401b900460ff16919050565b5f80807f7fffffffffffffffffffffffffffffff5d576e7357a4501ddfe92f46681b20a084111561360057505f91506003905082613685565b604080515f808252602082018084528a905260ff891692820192909252606081018790526080810186905260019060a0016020604051602081039080840390855afa158015613651573d5f803e3d5ffd5b5050604051601f1901519150506001600160a01b03811661367c57505f925060019150829050613685565b92505f91508190505b9450945094915050565b5f805f835160208501865af49392505050565b6040513d81523d5f602083013e3d602001810160405290565b6040513d5f823e3d81fd5b5080546136d29061409c565b5f825580601f106136e1575050565b601f0160209004905f5260205f2090810190612dbe91905b8082111561370c575f81556001016136f9565b5090565b80356001600160a01b0381168114613726575f80fd5b919050565b5f805f6060848603121561373d575f80fd5b61374684613710565b95602085013595506040909401359392505050565b5f5b8381101561377557818101518382015260200161375d565b50505f910152565b5f815180845261379481602086016020860161375b565b601f01601f19169290920160200192915050565b5f60208083018184528085518083526040925060408601915060408160051b8701018488015f5b8381101561383457603f198984030185528151606081518186526137f58287018261377d565b915050888201518582038a87015261380d828261377d565b928901516001600160a01b03169589019590955250948701949250908601906001016137cf565b509098975050505050505050565b5f8083601f840112613852575f80fd5b5081356001600160401b03811115613868575f80fd5b60208301915083602082850101111561387f575f80fd5b9250929050565b5f805f805f6060868803121561389a575f80fd5b6138a386613710565b945060208601356001600160401b03808211156138be575f80fd5b6138ca89838a01613842565b909650945060408801359150808211156138e2575f80fd5b506138ef88828901613842565b969995985093965092949392505050565b5f805f805f805f805f8060c08b8d031215613919575f80fd5b6139228b613710565b995060208b01356001600160401b038082111561393d575f80fd5b6139498e838f01613842565b909b50995060408d0135915080821115613961575f80fd5b61396d8e838f01613842565b909950975060608d0135965060808d013591508082111561398c575f80fd5b6139988e838f01613842565b909650945060a08d01359150808211156139b0575f80fd5b506139bd8d828e01613842565b915080935050809150509295989b9194979a5092959850565b5f8083601f8401126139e6575f80fd5b5081356001600160401b038111156139fc575f80fd5b6020830191508360208260051b850101111561387f575f80fd5b5f805f8060408587031215613a29575f80fd5b84356001600160401b0380821115613a3f575f80fd5b613a4b888389016139d6565b90965094506020870135915080821115613a63575f80fd5b50613a7087828801613842565b95989497509550505050565b5f805f805f60608688031215613a90575f80fd5b613a9986613710565b945060208601356001600160401b0380821115613ab4575f80fd5b6138ca89838a016139d6565b634e487b7160e01b5f52604160045260245ffd5b5f6001600160401b0380841115613aed57613aed613ac0565b604051601f8501601f19908116603f01168101908282118183101715613b1557613b15613ac0565b81604052809350858152868686011115613b2d575f80fd5b858560208301375f602087830101525050509392505050565b5f82601f830112613b55575f80fd5b610a3d83833560208501613ad4565b5f60208284031215613b74575f80fd5b81356001600160401b03811115613b89575f80fd5b613b9584828501613b46565b949350505050565b602081525f610a3d602083018461377d565b5f8060408385031215613bc0575f80fd5b613bc983613710565b915060208301356001600160401b03811115613be3575f80fd5b8301601f81018513613bf3575f80fd5b613c0285823560208401613ad4565b9150509250929050565b5f60208284031215613c1c575f80fd5b610a3d82613710565b5f8060408385031215613c36575f80fd5b613c3f83613710565b946020939093013593505050565b5f805f805f805f8060a0898b031215613c64575f80fd5b613c6d89613710565b975060208901356001600160401b0380821115613c88575f80fd5b613c948c838d01613842565b909950975060408b0135915080821115613cac575f80fd5b613cb88c838d01613842565b909750955060608b0135945060808b0135915080821115613cd7575f80fd5b50613ce48b828c01613842565b999c989b5096995094979396929594505050565b5f8060408385031215613d09575f80fd5b613d1283613710565b9150613d2060208401613710565b90509250929050565b5f8060408385031215613d3a575f80fd5b82356001600160401b03811115613d4f575f80fd5b613d5b85828601613b46565b95602094909401359450505050565b604081525f613d7c604083018561377d565b90508260208301529392505050565b5f8060208385031215613d9c575f80fd5b82356001600160401b03811115613db1575f80fd5b613dbd85828601613842565b90969095509350505050565b5f805f805f805f6080888a031215613ddf575f80fd5b87356001600160401b0380821115613df5575f80fd5b613e018b838c01613842565b909950975060208a0135915080821115613e19575f80fd5b613e258b838c01613842565b909750955060408a0135945060608a0135915080821115613e44575f80fd5b50613e518a828b01613842565b989b979a50959850939692959293505050565b5f805f805f805f805f60a08a8c031215613e7c575f80fd5b89356001600160401b0380821115613e92575f80fd5b613e9e8d838e01613842565b909b50995060208c0135915080821115613eb6575f80fd5b613ec28d838e01613842565b909950975060408c0135965060608c0135915080821115613ee1575f80fd5b613eed8d838e01613842565b909650945060808c0135915080821115613f05575f80fd5b50613f128c828d01613842565b915080935050809150509295985092959850929598565b602080825282518282018190525f919060409081850190868401855b82811015613f7557815180516001600160a01b031685528601511515868501529284019290850190600101613f45565b5091979650505050505050565b5f805f8060408587031215613f95575f80fd5b84356001600160401b0380821115613fab575f80fd5b613a4b88838901613842565b5f60208083018184528085518083526040925060408601915060408160051b8701018488015f5b8381101561383457888303603f19018552815180518785526140028886018261377d565b918901519489019490945294870194925090860190600101613fde565b602080825260159082015274596f7520646f6e277420686176652061636365737360581b604082015260600190565b634e487b7160e01b5f52601160045260245ffd5b80820180821115612d7e57612d7e61404e565b81810381811115612d7e57612d7e61404e565b634e487b7160e01b5f52603260045260245ffd5b600181811c908216806140b057607f821691505b6020821081036140ce57634e487b7160e01b5f52602260045260245ffd5b50919050565b601f821115612ff657805f5260205f20601f840160051c810160208510156140f95750805b601f840160051c820191505b81811015610f97575f8155600101614105565b5f19600383901b1c191660019190911b1790565b81516001600160401b0381111561414557614145613ac0565b61415981614153845461409c565b846140d4565b602080601f831160018114614187575f84156141755750858301515b61417f8582614118565b865550611186565b5f85815260208120601f198616915b828110156141b557888601518255948401946001909101908401614196565b50858210156141d257878501515f19600388901b60f8161c191681555b5050505050600190811b01905550565b81835281816020850137505f828201602090810191909152601f909101601f19169091010190565b604081525f61421d6040830186886141e2565b82810360208401526142308185876141e2565b979650505050505050565b818382375f9101908152919050565b6001600160401b0383111561426157614261613ac0565b6142758361426f835461409c565b836140d4565b5f601f8411600181146142a1575f851561428f5750838201355b6142998682614118565b845550610f97565b5f83815260208120601f198716915b828110156142d057868501358255602094850194600190920191016142b0565b50868210156142ec575f1960f88860031b161c19848701351681555b505060018560011b0183555050505050565b604081525f6143116040830185876141e2565b9050826020830152949350505050565b5f808335601e19843603018112614336575f80fd5b8301803591506001600160401b0382111561434f575f80fd5b60200191503681900382131561387f575f80fd5b8082028115828204841417612d7e57612d7e61404e565b5f8083546143878161409c565b6001828116801561439f57600181146143b4576143e0565b60ff19841687528215158302870194506143e0565b875f526020805f205f5b858110156143d75781548a8201529084019082016143be565b50505082870194505b50929695505050505050565b8181036143f7575050565b614401825461409c565b6001600160401b0381111561441857614418613ac0565b61442681614153845461409c565b5f601f821160018114614452575f83156144405750848201545b61444a8482614118565b855550610f97565b5f8581526020808220868352908220601f198616925b838110156144885782860154825560019586019590910190602001614468565b50858310156141d2579301545f1960f8600387901b161c19169092555050600190811b01905550565b634e487b7160e01b5f52603160045260245ffd5b602081525f613b956020830184866141e2565b5f82516144e981846020870161375b565b9190910192915050565b7f436f6e6669726d2045324545205075626c6963204b65793a20000000000000008152828460198301375f838201670102737b731b29d160c51b6019820152835161454581602184016020880161375b565b0160210195945050505050565b5f600182016145635761456361404e565b5060010190565b5f6020828403121561457a575f80fd5b5051919050565b7f19457468657265756d205369676e6564204d6573736167653a0a00000000000081525f83516145b881601a85016020880161375b565b8351908301906145cf81601a84016020880161375b565b01601a01949350505050565b634e487b7160e01b5f52602160045260245ffdfee0f76fb99d0fdcc765fe6a79952945f024346ab3418e7d8cc9eed19185d31d4c360894a13ba1a3210667c828492db98dca3e2076cc3735a920a3ca505d382bbc405aa9f544034efa22d1924de4ffaaaedf71ef4e579ad1b5da738a24930e3a59a2646970667358221220bbbbc9cfb9288cb1d1b309c1b856b2d30a6b39784df26084939765d2aaf6c8d264736f6c63430008180033",
  "linkReferences": {},
  "deployedLinkReferences": {}
}