{
  "_format": "hh-sol-artifact-1",
  "contractName": "UploadUpgradeableV6",
  "sourceName": "contracts/UploadUpgradeableV6.sol",
  "abi": [
    {
      "inputs": [],
      "stateMutability": "nonpayable",
      "type": "constructor"
    },
    {
      "inputs": [
        {
          "internalType": "address",
          "name": "target",
          "type": "address"
        }
      ],
      "name": "AddressEmptyCode",
      "type": "error"
    },
    {
      "inputs": [],
      "name": "ECDSAInvalidSignature",
      "type": "error"
    },
    {
      "inputs": [
        {
          "internalType": "uint256",
          "name": "length",
          "type": "uint256"
        }
      ],
      "name": "ECDSAInvalidSignatureLength",
      "type": "error"
    },
    {
      "inputs": [
        {
          "internalType": "bytes32",
          "name": "s",
          "type": "bytes32"
        }
      ],
      "name": "ECDSAInvalidSignatureS",
      "type": "error"
    },
    {
      "inputs": [
        {
          "internalType": "address",
          "name": "implementation",
          "type": "address"
        }
      ],
      "name": "ERC1967InvalidImplementation",
      "type": "error"
    },
    {
      "inputs": [],
      "name": "ERC1967NonPayable",
      "type": "error"
    },
    {
      "inputs": [],
      "name": "FailedCall",
      "type": "error"
    },
    {
      "inputs": [],
      "name": "InvalidInitialization",
      "type": "error"
    },
    {
      "inputs": [],
      "name": "NotInitializing",
      "type": "error"
    },
    {
      "inputs": [
        {
          "internalType": "address",
          "name": "owner",
          "type": "address"
        }
      ],
      "name": "OwnableInvalidOwner",
      "type": "error"
    },
    {
      "inputs": [
        {
          "internalType": "address",
          "name": "account",
          "type": "address"
        }
      ],
      "name": "OwnableUnauthorizedAccount",
      "type": "error"
    },
    {
      "inputs": [],
      "name": "UUPSUnauthorizedCallContext",
      "type": "error"
    },
    {
      "inputs": [
        {
          "internalType": "bytes32",
          "name": "slot",
          "type": "bytes32"
        }
      ],
      "name": "UUPSUnsupportedProxiableUUID",
      "type": "error"
    },
    {
      "anonymous": false,
      "inputs": [
        {
          "indexed": true,
          "internalType": "address",
          "name": "owner",
          "type": "address"
        },
        {
          "indexed": true,
          "internalType": "address",
          "name": "user",
          "type": "address"
        },
        {
          "indexed": false,
          "internalType": "uint256",
          "name": "durationInMinutes",
          "type": "uint256"
        }
      ],
      "name": "AccessGranted",
      "type": "event"
    },
    {
      "anonymous": false,
      "inputs": [
        {
          "indexed": true,
          "internalType": "address",
          "name": "owner",
          "type": "address"
        },
        {
          "indexed": true,
          "internalType": "address",
          "name": "user",
          "type": "address"
        }
      ],
      "name": "AccessRevoked",
      "type": "event"
    },
    {
      "anonymous": false,
      "inputs": [
        {
          "indexed": true,
          "internalType": "address",
          "name": "user",
          "type": "address"
        },
        {
          "indexed": true,
          "internalType": "address",
          "name": "sender",
          "type": "address"
        },
        {
          "indexed": false,
          "internalType": "string",
          "name": "url",
          "type": "string"
        },
        {
          "indexed": false,
          "internalType": "string",
          "name": "category",
          "type": "string"
        }
      ],
      "name": "FileAdded",
      "type": "event"
    },
    {
      "anonymous": false,
      "inputs": [
        {
          "indexed": true,
          "internalType": "address",
          "name": "user",
          "type": "address"
        },
        {
          "indexed": false,
          "internalType": "string",
          "name": "url",
          "type": "string"
        }
      ],
      "name": "FileDeleted",
      "type": "event"
    },
    {
      "anonymous": false,
      "inputs": [
        {
          "indexed": true,
          "internalType": "address",
          "name": "signer",
          "type": "address"
        },
        {
          "indexed": false,
          "internalType": "string",
          "name": "url",
          "type": "string"
        },
        {
          "indexed": false,
          "internalType": "bytes32",
          "name": "fileHash",
          "type": "bytes32"
        }
      ],
      "name": "FileSigned",
      "type": "event"
    },
    {
      "anonymous": false,
      "inputs": [
        {
          "indexed": true,
          "internalType": "address",
          "name": "user",
          "type": "address"
        },
        {
          "indexed": false,
          "internalType": "string",
          "name": "oldUrl",
          "type": "string"
        },
        {
          "indexed": false,
          "internalType": "string",
          "name": "newUrl",
          "type": "string"
        }
      ],
      "name": "FileUpdated",
      "type": "event"
    },
    {
      "anonymous": false,
      "inputs": [
        {
          "indexed": false,
          "internalType": "uint64",
          "name": "version",
          "type": "uint64"
        }
      ],
      "name": "Initialized",
      "type": "event"
    },
    {
      "anonymous": false,
      "inputs": [
        {
          "indexed": true,
          "internalType": "address",
          "name": "previousOwner",
          "type": "address"
        },
        {
          "indexed": true,
          "internalType": "address",
          "name": "newOwner",
          "type": "address"
        }
      ],
      "name": "OwnershipTransferred",
      "type": "event"
    },
    {
      "anonymous": false,
      "inputs": [
        {
          "indexed": true,
          "internalType": "address",
          "name": "user",
          "type": "address"
        },
        {
          "indexed": false,
          "internalType": "string",
          "name": "publicKey",
          "type": "string"
        }
      ],
      "name": "PublicKeyPublished",
      "type": "event"
    },
    {
      "anonymous": false,
      "inputs": [
        {
          "indexed": true,
          "internalType": "address",
          "name": "implementation",
          "type": "address"
        }
      ],
      "name": "Upgraded",
      "type": "event"
    },
    {
      "inputs": [],
      "name": "UPGRADE_INTERFACE_VERSION",
      "outputs": [
        {
          "internalType": "string",
          "name": "",
          "type": "string"
        }
      ],
      "stateMutability": "view",
      "type": "function"
    },
    {
      "inputs": [
        {
          "internalType": "address",
          "name": "",
          "type": "address"
        },
        {
          "internalType": "address",
          "name": "",
          "type": "address"
        }
      ],
      "name": "accessExpiry",
      "outputs": [
        {
          "internalType": "uint256",
          "name": "",
          "type": "uint256"
        }
      ],
      "stateMutability": "view",
      "type": "function"
    },
    {
      "inputs": [
        {
          "internalType": "string",
          "name": "url",
          "type": "string"
        },
        {
          "internalType": "string",
          "name": "category",
          "type": "string"
        }
      ],
      "name": "add",
      "outputs": [],
      "stateMutability": "nonpayable",
      "type": "function"
    },
    {
      "inputs": [
        {
          "internalType": "string[]",
          "name": "urls",
          "type": "string[]"
        },
        {
          "internalType": "string",
          "name": "category",
          "type": "string"
        }
      ],
      "name": "addBatch",
      "outputs": [],
      "stateMutability": "nonpayable",
      "type": "function"
    },
    {
      "inputs": [
        {
          "internalType": "string",
          "name": "url",
          "type": "string"
        },
        {
          "internalType": "string",
          "name": "category",
          "type": "string"
        },
        {
          "internalType": "bytes32",
          "name": "fileHash",
          "type": "bytes32"
        },
        {
          "internalType": "bytes",
          "name": "signature",
          "type": "bytes"
        },
        {
          "internalType": "string",
          "name": "encryptedKey",
          "type": "string"
        }
      ],
      "name": "addWithE2EE",
      "outputs": [],
      "stateMutability": "nonpayable",
      "type": "function"
    },
    {
      "inputs": [
        {
          "internalType": "string",
          "name": "url",
          "type": "string"
        },
        {
          "internalType": "string",
          "name": "category",
          "type": "string"
        },
        {
          "internalType": "bytes32",
          "name": "fileHash",
          "type": "bytes32"
        },
        {
          "internalType": "bytes",
          "name": "signature",
          "type": "bytes"
        }
      ],
      "name": "addWithSignature",
      "outputs": [],
      "stateMutability": "nonpayable",
      "type": "function"
    },
    {
      "inputs": [
        {
          "internalType": "address",
          "name": "user",
          "type": "address"
        },
        {
          "internalType": "uint256",
          "name": "durationInMinutes",
          "type": "uint256"
        }
      ],
      "name": "allow",
      "outputs": [],
      "stateMutability": "nonpayable",
      "type": "function"
    },
    {
      "inputs": [
        {
          "internalType": "string",
          "name": "url",
          "type": "string"
        }
      ],
      "name": "deleteFile",
      "outputs": [],
      "stateMutability": "nonpayable",
      "type": "function"
    },
    {
      "inputs": [
        {
          "internalType": "address",
          "name": "user",
          "type": "address"
        }
      ],
      "name": "disallow",
      "outputs": [],
      "stateMutability": "nonpayable",
      "type": "function"
    },
    {
      "inputs": [
        {
          "internalType": "address",
          "name": "_user",
          "type": "address"
        }
      ],
      "name": "display",
      "outputs": [
        {
          "components": [
            {
              "internalType": "string",
              "name": "url",
              "type": "string"
            },
            {
              "internalType": "string",
              "name": "category",
              "type": "string"
            },
            {
              "internalType": "address",
              "name": "sender",
              "type": "address"
            }
          ],
          "internalType": "struct UploadUpgradeableV6.FileInfo[]",
          "name": "",
          "type": "tuple[]"
        }
      ],
      "stateMutability": "view",
      "type": "function"
    },
    {
      "inputs": [
        {
          "internalType": "address",
          "name": "_user",
          "type": "address"
        },
        {
          "internalType": "uint256",
          "name": "offset",
          "type": "uint256"
        },
        {
          "internalType": "uint256",
          "name": "limit",
          "type": "uint256"
        }
      ],
      "name": "displayPage",
      "outputs": [
        {
          "components": [
            {
              "internalType": "string",
              "name": "url",
              "type": "string"
            },
            {
              "internalType": "string",
              "name": "category",
              "type": "string"
            },
            {
              "internalType": "address",
              "name": "sender",
              "type": "address"
            }
          ],
          "internalType": "struct UploadUpgradeableV6.FileInfo[]",
          "name": "",
          "type": "tuple[]"
        }
      ],
      "stateMutability": "view",
      "type": "function"
    },
    {
      "inputs": [
        {
          "internalType": "string",
          "name": "",
          "type": "string"
        }
      ],
      "name": "encryptedAESKeys",
      "outputs": [
        {
          "internalType": "string",
          "name": "",
          "type": "string"
        }
      ],
      "stateMutability": "view",
      "type": "function"
    },
    {
      "inputs": [
        {
          "internalType": "address",
          "name": "",
          "type": "address"
        }
      ],
      "name": "encryptionPublicKeys",
      "outputs": [
        {
          "internalType": "string",
          "name": "",
          "type": "string"
        }
      ],
      "stateMutability": "view",
      "type": "function"
    },
    {
      "inputs": [
        {
          "internalType": "string",
          "name": "",
          "type": "string"
        }
      ],
      "name": "fileHashes",
      "outputs": [
        {
          "internalType": "bytes32",
          "name": "",
          "type": "bytes32"
        }
      ],
      "stateMutability": "view",
      "type": "function"
    },
    {
      "inputs": [
        {
          "internalType": "string",
          "name": "",
          "type": "string"
        }
      ],
      "name": "fileSignatures",
      "outputs": [
        {
          "internalType": "bytes",
          "name": "",
          "type": "bytes"
        }
      ],
      "stateMutability": "view",
      "type": "function"
    },
    {
      "inputs": [
        {
          "internalType": "string",
          "name": "",
          "type": "string"
        },
        {
          "internalType": "uint256",
          "name": "",
          "type": "uint256"
        }
      ],
      "name": "fileVersions",
      "outputs": [
        {
          "internalType": "string",
          "name": "url",
          "type": "string"
        },
        {
          "internalType": "uint256",
          "name": "timestamp",
          "type": "uint256"
        }
      ],
      "stateMutability": "view",
      "type": "function"
    },
    {
      "inputs": [
        {
          "internalType": "address",
          "name": "_user",
          "type": "address"
        }
      ],
      "name": "getFileCount",
      "outputs": [
        {
          "internalType": "uint256",
          "name": "",
          "type": "uint256"
        }
      ],
      "stateMutability": "view",
      "type": "function"
    },
    {
      "inputs": [
        {
          "internalType": "string",
          "name": "currentUrl",
          "type": "string"
        }
      ],
      "name": "getFileHistory",
      "outputs": [
        {
          "components": [
            {
              "internalType": "string",
              "name": "url",
              "type": "string"
            },
            {
              "internalType": "uint256",
              "name": "timestamp",
              "type": "uint256"
            }
          ],
          "internalType": "struct UploadUpgradeableV6.Version[]",
          "name": "",
          "type": "tuple[]"
        }
      ],
      "stateMutability": "view",
      "type": "function"
    },
    {
      "inputs": [],
      "name": "initialize",
      "outputs": [],
      "stateMutability": "nonpayable",
      "type": "function"
    },
    {
      "inputs": [
        {
          "internalType": "string",
          "name": "",
          "type": "string"
        }
      ],
      "name": "originalUrls",
      "outputs": [
        {
          "internalType": "string",
          "name": "",
          "type": "string"
        }
      ],
      "stateMutability": "view",
      "type": "function"
    },
    {
      "inputs": [],
      "name": "owner",
      "outputs": [
        {
          "internalType": "address",
          "name": "",
          "type": "address"
        }
      ],
      "stateMutability": "view",
      "type": "function"
    },
    {
      "inputs": [
        {
          "internalType": "address",
          "name": "",
          "type": "address"
        },
        {
          "internalType": "address",
          "name": "",
          "type": "address"
        }
      ],
      "name": "ownership",
      "outputs": [
        {
          "internalType": "bool",
          "name": "",
          "type": "bool"
        }
      ],
      "stateMutability": "view",
      "type": "function"
    },
    {
      "inputs": [],
      "name": "proxiableUUID",
      "outputs": [
        {
          "internalType": "bytes32",
          "name": "",
          "type": "bytes32"
        }
      ],
      "stateMutability": "view",
      "type": "function"
    },
    {
      "inputs": [],
      "name": "renounceOwnership",
      "outputs": [],
      "stateMutability": "nonpayable",
      "type": "function"
    },
    {
      "inputs": [
        {
          "internalType": "address",
          "name": "receiver",
          "type": "address"
        },
        {
          "internalType": "string",
          "name": "url",
          "type": "string"
        },
        {
          "internalType": "string",
          "name": "category",
          "type": "string"
        }
      ],
      "name": "sendFileToReceiver",
      "outputs": [],
      "stateMutability": "nonpayable",
      "type": "function"
    },
    {
      "inputs": [
        {
          "internalType": "address",
          "name": "receiver",
          "type": "address"
        },
        {
          "internalType": "string[]",
          "name": "urls",
          "type": "string[]"
        },
        {
          "internalType": "string",
          "name": "category",
          "type": "string"
        }
      ],
      "name": "sendFileToReceiverBatch",
      "outputs": [],
      "stateMutability": "nonpayable",
      "type": "function"
    },
    {
      "inputs": [
        {
          "internalType": "address",
          "name": "receiver",
          "type": "address"
        },
        {
          "internalType": "string",
          "name": "url",
          "type": "string"
        },
        {
          "internalType": "string",
          "name": "category",
          "type": "string"
        },
        {
          "internalType": "bytes32",
          "name": "fileHash",
          "type": "bytes32"
        },
        {
          "internalType": "bytes",
          "name": "signature",
          "type": "bytes"
        },
        {
          "internalType": "string",
          "name": "encryptedKey",
          "type": "string"
        }
      ],
      "name": "sendFileToReceiverWithE2EE",
      "outputs": [],
      "stateMutability": "nonpayable",
      "type": "function"
    },
    {
      "inputs": [
        {
          "internalType": "address",
          "name": "receiver",
          "type": "address"
        },
        {
          "internalType": "string",
          "name": "url",
          "type": "string"
        },
        {
          "internalType": "string",
          "name": "category",
          "type": "string"
        },
        {
          "internalType": "bytes32",
          "name": "fileHash",
          "type": "bytes32"
        },
        {
          "internalType": "bytes",
          "name": "signature",
          "type": "bytes"
        }
      ],
      "name": "sendFileToReceiverWithSignature",
      "outputs": [],
      "stateMutability": "nonpayable",
      "type": "function"
    },
    {
      "inputs": [
        {
          "internalType": "string",
          "name": "key",
          "type": "string"
        },
        {
          "internalType": "bytes",
          "name": "signature",
          "type": "bytes"
        }
      ],
      "name": "setEncryptionPublicKey",
      "outputs": [],
      "stateMutability": "nonpayable",
      "type": "function"
    },
    {
      "inputs": [],
      "name": "shareAccess",
      "outputs": [
        {
          "components": [
            {
              "internalType": "address",
              "name": "user",
              "type": "address"
            },
            {
              "internalType": "bool",
              "name": "access",
              "type": "bool"
            }
          ],
          "internalType": "struct UploadUpgradeableV6.Access[]",
          "name": "",
          "type": "tuple[]"
        }
      ],
      "stateMutability": "view",
      "type": "function"
    },
    {
      "inputs": [
        {
          "internalType": "address",
          "name": "newOwner",
          "type": "address"
        }
      ],
      "name": "transferOwnership",
      "outputs": [],
      "stateMutability": "nonpayable",
      "type": "function"
    },
    {
      "inputs": [
        {
          "internalType": "string",
          "name": "currentUrl",
          "type": "string"
        },
        {
          "internalType": "string",
          "name": "newUrl",
          "type": "string"
        },
        {
          "internalType": "bytes32",
          "name": "newFileHash",
          "type": "bytes32"
        },
        {
          "internalType": "bytes",
          "name": "newSignature",
          "type": "bytes"
        },
        {
          "internalType": "string",
          "name": "newEncryptedKey",
          "type": "string"
        }
      ],
      "name": "updateFile",
      "outputs": [],
      "stateMutability": "nonpayable",
      "type": "function"
    },
    {
      "inputs": [
        {
          "internalType": "address",
          "name": "newImplementation",
          "type": "address"
        },
        {
          "internalType": "bytes",
          "name": "data",
          "type": "bytes"
        }
      ],
      "name": "upgradeToAndCall",
      "outputs": [],
      "stateMutability": "payable",
      "type": "function"
    }
  ],
  "bytecode": "0x60a06040523060805234801562000014575f80fd5b506200001f62000025565b620000d9565b7ff0c57e16840df040f15088dc2f81fe391c3923bec73e23a9662efc9c229c6a00805468010000000000000000900460ff1615620000765760405163f92ee8a960e01b815260040160405180910390fd5b80546001600160401b0390811614620000d65780546001600160401b0319166001600160401b0390811782556040519081527fc7f505b2f371ae2175ee4913f4499e1f2633a7b5936321eed1cdaeb6115181d29060200160405180910390a15b50565b6080516145d8620001005f395f8181612e2b01528181612e540152612f9801526145d85ff3fe6080604052600436106101e6575f3560e01c806391f2059611610108578063b90fec791161009d578063ebdf86ca1161006d578063ebdf86ca146105f5578063ede8082414610614578063ee9125bc14610633578063f2fde38b1461065f578063fa001d7b1461067e575f80fd5b8063b90fec7914610577578063bc8bef8114610596578063eb39113f146105b7578063eb6d4ff4146105d6575f80fd5b8063a9910054116100d8578063a9910054146104ea578063a9ed9cb814610509578063ad3cb1cc14610528578063b66cd9e014610558575f80fd5b806391f205961461041f578063974fe59114610455578063a2854fb31461049e578063a303958c146104bd575f80fd5b806352d1902d1161017e5780636fa811e01161014e5780636fa811e014610392578063715018a6146103b15780638129fc1c146103c55780638da5cb5b146103d9575f80fd5b806352d1902d14610321578063547d39a114610335578063570b0257146103545780636c6f31f214610373575f80fd5b8063438efa48116101b9578063438efa481461027e578063452752521461029d578063456912a9146102e25780634f1ef2861461030e575f80fd5b80631135d522146101ea57806314d7b7741461021f57806315448ee81461024057806329411af01461025f575b5f80fd5b3480156101f5575f80fd5b506102096102043660046136bd565b61069d565b604051610216919061373a565b60405180910390f35b34801561022a575f80fd5b5061023e610239366004613818565b610a0e565b005b34801561024b575f80fd5b5061023e61025a366004613892565b610b90565b34801561026a575f80fd5b5061023e6102793660046139a8565b610dec565b348015610289575f80fd5b5061023e610298366004613a0e565b610f68565b3480156102a8575f80fd5b506102d46102b7366004613af6565b805160208183018101805160078252928201919093012091525481565b604051908152602001610216565b3480156102ed575f80fd5b506103016102fc366004613af6565b611158565b6040516102169190613b2f565b61023e61031c366004613b41565b6111fb565b34801561032c575f80fd5b506102d461121a565b348015610340575f80fd5b5061030161034f366004613af6565b611235565b34801561035f575f80fd5b5061030161036e366004613b9e565b611259565b34801561037e575f80fd5b5061023e61038d366004613bb7565b611271565b34801561039d575f80fd5b5061023e6103ac366004613bdf565b61145c565b3480156103bc575f80fd5b5061023e61168c565b3480156103d0575f80fd5b5061023e61169f565b3480156103e4575f80fd5b507f9016d09d72d40fdae2fd8ceac6b6234c7706214fd39c1cd1e609a0528c199300546040516001600160a01b039091168152602001610216565b34801561042a575f80fd5b506102d4610439366004613c8a565b600260209081525f928352604080842090915290825290205481565b348015610460575f80fd5b5061048e61046f366004613c8a565b600160209081525f928352604080842090915290825290205460ff1681565b6040519015158152602001610216565b3480156104a9575f80fd5b506103016104b8366004613af6565b611794565b3480156104c8575f80fd5b506104dc6104d7366004613cbb565b6117b8565b604051610216929190613cfc565b3480156104f5575f80fd5b5061023e610504366004613d1d565b611889565b348015610514575f80fd5b5061023e610523366004613b9e565b611a24565b348015610533575f80fd5b50610301604051806040016040528060058152602001640352e302e360dc1b81525081565b348015610563575f80fd5b5061023e610572366004613d5b565b611c68565b348015610582575f80fd5b5061023e610591366004613df6565b611e15565b3480156105a1575f80fd5b506105aa61225d565b6040516102169190613ebb565b3480156105c2575f80fd5b506102096105d1366004613b9e565b61241a565b3480156105e1575f80fd5b5061023e6105f0366004613f14565b61266e565b348015610600575f80fd5b5061023e61060f366004613f14565b6127a6565b34801561061f575f80fd5b5061023e61062e366004613df6565b6128c7565b34801561063e575f80fd5b5061065261064d366004613d1d565b612aa6565b6040516102169190613f49565b34801561066a575f80fd5b5061023e610679366004613b9e565b612d16565b348015610689575f80fd5b506102d4610698366004613b9e565b612d53565b6001600160a01b0383165f9081526001602090815260408083203384529091528120546060919060ff16801561071e57506001600160a01b0385165f908152600260209081526040808320338452909152902054158061071e57506001600160a01b0385165f90815260026020908152604080832033845290915290205442105b90506001600160a01b0385163314806107345750805b6107595760405162461bcd60e51b815260040161075090613fb1565b60405180910390fd5b6001600160a01b0385165f908152602081905260409020548085106107c557604080515f80825260208201909252906107bb565b604080516060808201835280825260208201525f9181019190915281526020019060019003908161078d5790505b5092505050610a07565b5f6107d08587613ff4565b9050818111156107dd5750805b5f6107e88783614007565b90505f816001600160401b0381111561080357610803613a52565b60405190808252806020026020018201604052801561084f57816020015b604080516060808201835280825260208201525f918101919091528152602001906001900390816108215790505b5090505f5b828110156109ff576001600160a01b038a165f90815260208190526040902061087d828b613ff4565b8154811061088d5761088d61401a565b905f5260205f2090600302016040518060600160405290815f820180546108b39061402e565b80601f01602080910402602001604051908101604052809291908181526020018280546108df9061402e565b801561092a5780601f106109015761010080835404028352916020019161092a565b820191905f5260205f20905b81548152906001019060200180831161090d57829003601f168201915b505050505081526020016001820180546109439061402e565b80601f016020809104026020016040519081016040528092919081815260200182805461096f9061402e565b80156109ba5780601f10610991576101008083540402835291602001916109ba565b820191905f5260205f20905b81548152906001019060200180831161099d57829003601f168201915b5050509183525050600291909101546001600160a01b031660209091015282518390839081106109ec576109ec61401a565b6020908102919091010152600101610854565b509450505050505b9392505050565b336001600160a01b03861603610a665760405162461bcd60e51b815260206004820152601c60248201527f55736520616464282920666f7220796f7572206f776e2066696c6573000000006044820152606401610750565b6001600160a01b0385165f908152602081815260409182902082516080601f8801849004909302810183019093526060830186815290929182919088908890819085018382808284375f92019190915250505090825250604080516020601f8701819004810282018101909252858152918101919086908690819084018382808284375f920182905250938552505033602093840152508354600181018555938152208151919260030201908190610b1e90826140be565b5060208201516001820190610b3390826140be565b5060409182015160029190910180546001600160a01b0319166001600160a01b03928316179055905133918716905f8051602061454383398151915290610b8190889088908890889061419c565b60405180910390a35050505050565b336001600160a01b038b1603610bf45760405162461bcd60e51b8152602060048201526024808201527f557365206164645769746845324545282920666f7220796f7572206f776e2066604482015263696c657360e01b6064820152608401610750565b6001600160a01b038a165f908152602081815260409182902082516080601f8d0184900490930281018301909352606083018b81529092918291908d908d90819085018382808284375f92019190915250505090825250604080516020601f8c018190048102820181019092528a815291810191908b908b90819084018382808284375f920182905250938552505033602093840152508354600181018555938152208151919260030201908190610cac90826140be565b5060208201516001820190610cc190826140be565b5060409182015160029190910180546001600160a01b0319166001600160a01b03909216919091179055518590600790610cfe908c908c906141cd565b908152602001604051809103902081905550838360068b8b604051610d249291906141cd565b90815260200160405180910390209182610d3f9291906141dc565b50818160098b8b604051610d549291906141cd565b90815260200160405180910390209182610d6f9291906141dc565b50336001600160a01b03168a6001600160a01b03165f805160206145438339815191528b8b8b8b604051610da6949392919061419c565b60405180910390a3336001600160a01b03165f805160206145838339815191528a8a88604051610dd893929190614290565b60405180910390a250505050505050505050565b5f5b83811015610f6157335f90815260208190526040908190208151606081019092529080878785818110610e2357610e2361401a565b9050602002810190610e3591906142b3565b8080601f0160208091040260200160405190810160405280939291908181526020018383808284375f92019190915250505090825250604080516020601f8801819004810282018101909252868152918101919087908790819084018382808284375f920182905250938552505033602093840152508354600181018555938152208151919260030201908190610ecc90826140be565b5060208201516001820190610ee190826140be565b5060409190910151600290910180546001600160a01b0319166001600160a01b0390921691909117905533805f80516020614543833981519152878785818110610f2d57610f2d61401a565b9050602002810190610f3f91906142b3565b8787604051610f51949392919061419c565b60405180910390a3600101610dee565b5050505050565b336001600160a01b03861603610fca5760405162461bcd60e51b815260206004820152602160248201527f557365206164644261746368282920666f7220796f7572206f776e2066696c656044820152607360f81b6064820152608401610750565b5f5b83811015611150575f80876001600160a01b03166001600160a01b031681526020019081526020015f2060405180606001604052808787858181106110135761101361401a565b905060200281019061102591906142b3565b8080601f0160208091040260200160405190810160405280939291908181526020018383808284375f92019190915250505090825250604080516020601f8801819004810282018101909252868152918101919087908790819084018382808284375f9201829052509385525050336020938401525083546001810185559381522081519192600302019081906110bc90826140be565b50602082015160018201906110d190826140be565b5060409190910151600290910180546001600160a01b0319166001600160a01b03928316179055339087165f8051602061454383398151915287878581811061111c5761111c61401a565b905060200281019061112e91906142b3565b8787604051611140949392919061419c565b60405180910390a3600101610fcc565b505050505050565b80516020818301810180516006825292820191909301209152805461117c9061402e565b80601f01602080910402602001604051908101604052809291908181526020018280546111a89061402e565b80156111f35780601f106111ca576101008083540402835291602001916111f3565b820191905f5260205f20905b8154815290600101906020018083116111d657829003601f168201915b505050505081565b611203612e20565b61120c82612ec4565b6112168282612ecc565b5050565b5f611223612f8d565b505f8051602061456383398151915290565b80516020818301810180516009825292820191909301209152805461117c9061402e565b60086020525f90815260409020805461117c9061402e565b336001600160a01b038316036112c95760405162461bcd60e51b815260206004820152601a60248201527f43616e6e6f74207368617265207769746820796f757273656c660000000000006044820152606401610750565b335f9081526001602081815260408084206001600160a01b0387168552909152909120805460ff19169091179055801561133a5761130881603c6142f5565b6113129042613ff4565b335f9081526002602090815260408083206001600160a01b038716845290915290205561135e565b335f9081526002602090815260408083206001600160a01b03861684529091528120555b335f9081526005602090815260408083206001600160a01b038616845290915290205460ff1661141857335f81815260036020908152604082208054600180820183558285529284200180546001600160a01b0319166001600160a01b0388161790559290915290546113d19190614007565b335f8181526004602090815260408083206001600160a01b0388168085529083528184209590955592825260058152828220938252929092529020805460ff191660011790555b6040518181526001600160a01b0383169033907f65d0cc1e52d49938ca4ad9f423c79c1b84d914b9a683fbc5d3f93ac3cc5635f59060200160405180910390a35050565b336001600160a01b038916036114c65760405162461bcd60e51b815260206004820152602960248201527f55736520616464576974685369676e6174757265282920666f7220796f7572206044820152686f776e2066696c657360b81b6064820152608401610750565b6001600160a01b0388165f908152602081815260409182902082516080601f8b0184900490930281018301909352606083018981529092918291908b908b90819085018382808284375f92019190915250505090825250604080516020601f8a01819004810282018101909252888152918101919089908990819084018382808284375f92018290525093855250503360209384015250835460018101855593815220815191926003020190819061157e90826140be565b506020820151600182019061159390826140be565b5060409182015160029190910180546001600160a01b0319166001600160a01b039092169190911790555183906007906115d0908a908a906141cd565b9081526020016040518091039020819055508181600689896040516115f69291906141cd565b908152602001604051809103902091826116119291906141dc565b50336001600160a01b0316886001600160a01b03165f8051602061454383398151915289898989604051611648949392919061419c565b60405180910390a3336001600160a01b03165f8051602061458383398151915288888660405161167a93929190614290565b60405180910390a25050505050505050565b611694612fd6565b61169d5f613031565b565b5f6116a86130a1565b805490915060ff600160401b82041615906001600160401b03165f811580156116ce5750825b90505f826001600160401b031660011480156116e95750303b155b9050811580156116f7575080155b156117155760405163f92ee8a960e01b815260040160405180910390fd5b845467ffffffffffffffff19166001178555831561173f57845460ff60401b1916600160401b1785555b611748336130c9565b8315610f6157845460ff60401b19168555604051600181527fc7f505b2f371ae2175ee4913f4499e1f2633a7b5936321eed1cdaeb6115181d29060200160405180910390a15050505050565b8051602081830181018051600a825292820191909301209152805461117c9061402e565b8151602081840181018051600b8252928201918501919091209190528054829081106117e2575f80fd5b905f5260205f2090600202015f9150915050805f0180546118029061402e565b80601f016020809104026020016040519081016040528092919081815260200182805461182e9061402e565b80156118795780601f1061185057610100808354040283529160200191611879565b820191905f5260205f20905b81548152906001019060200180831161185c57829003601f168201915b5050505050908060010154905082565b335f908152602081905260408120905b8154811015611a1e5783836040516118b29291906141cd565b60405180910390208282815481106118cc576118cc61401a565b905f5260205f2090600302015f016040516118e7919061430c565b604051809103902003611a16578154829061190490600190614007565b815481106119145761191461401a565b905f5260205f2090600302018282815481106119325761193261401a565b5f91825260209091206003909102018061194c838261437e565b5060018181019061195f9084018261437e565b50600291820154910180546001600160a01b0319166001600160a01b03909216919091179055815482908061199657611996614443565b5f828152602081205f19909201916003830201906119b48282613658565b6119c1600183015f613658565b5060020180546001600160a01b0319169055905560405133907f14a51c77a00d5c4c3ccc7a4df74f169088c4d4d04859d176729645e53c7b895c90611a099087908790614457565b60405180910390a2611a1e565b600101611899565b50505050565b335f9081526001602090815260408083206001600160a01b038516845290915290205460ff16611a965760405162461bcd60e51b815260206004820152601960248201527f5573657220646f6573206e6f74206861766520616363657373000000000000006044820152606401610750565b335f8181526001602090815260408083206001600160a01b038616808552908352818420805460ff1916905593835260058252808320938352929052205460ff1615611c3057335f8181526004602090815260408083206001600160a01b03861684528252808320549383526003909152812054611b1690600190614007565b335f9081526003602052604081208054929350909183908110611b3b57611b3b61401a565b5f9182526020808320909101543383526003909152604090912080546001600160a01b039092169250829185908110611b7657611b7661401a565b5f91825260208083209190910180546001600160a01b0319166001600160a01b0394851617905533808352600482526040808420948616845293825283832087905582526003905220805480611bce57611bce614443565b5f828152602080822083015f1990810180546001600160a01b0319169055909201909255338083526005825260408084206001600160a01b038916808652908452818520805460ff191690559184526004835280842091845291528120555050505b6040516001600160a01b0382169033907f825c8be24eb0df19500f63e86c29e7d0d951e73056b889b891d85e40938d9b6e905f90a350565b335f908152602081815260409182902082516080601f8b0184900490930281018301909352606083018981529092918291908b908b90819085018382808284375f92019190915250505090825250604080516020601f8a01819004810282018101909252888152918101919089908990819084018382808284375f920182905250938552505033602093840152508354600181018555938152208151919260030201908190611d1790826140be565b5060208201516001820190611d2c90826140be565b5060409182015160029190910180546001600160a01b0319166001600160a01b03909216919091179055518390600790611d69908a908a906141cd565b908152602001604051809103902081905550818160068989604051611d8f9291906141cd565b90815260200160405180910390209182611daa9291906141dc565b50604051339081905f8051602061454383398151915290611dd2908b908b908b908b9061419c565b60405180910390a3336001600160a01b03165f80516020614583833981519152888886604051611e0493929190614290565b60405180910390a250505050505050565b335f90815260208190526040812090805b8254811015611ec2578b8b604051611e3f9291906141cd565b6040518091039020838281548110611e5957611e5961401a565b905f5260205f2090600302015f01604051611e74919061430c565b604051809103902003611eba578989848381548110611e9557611e9561401a565b905f5260205f2090600302015f019182611eb09291906141dc565b5060019150611ec2565b600101611e26565b5080611f015760405162461bcd60e51b815260206004820152600e60248201526d119a5b19481b9bdd08199bdd5b9960921b6044820152606401610750565b5f600a8c8c604051611f149291906141cd565b90815260200160405180910390208054611f2d9061402e565b80601f0160208091040260200160405190810160405280929190818152602001828054611f599061402e565b8015611fa45780601f10611f7b57610100808354040283529160200191611fa4565b820191905f5260205f20905b815481529060010190602001808311611f8757829003601f168201915b5050505050905080515f036120c0578b8b8080601f0160208091040260200160405190810160405280939291908181526020018383808284375f92019190915250506040519293508392600a925061200091508f908f906141cd565b9081526020016040518091039020908161201a91906140be565b50600b8160405161202b919061446a565b908152602001604051809103902060405180604001604052808e8e8080601f0160208091040260200160405190810160405280939291908181526020018383808284375f9201919091525050509082525060200161208a600142614007565b905281546001810183555f928352602090922081519192600202019081906120b290826140be565b506020820151816001015550505b80600a8b8b6040516120d39291906141cd565b908152602001604051809103902090816120ed91906140be565b50600b816040516120fe919061446a565b908152602001604051809103902060405180604001604052808c8c8080601f0160208091040260200160405190810160405280939291908181526020018383808284375f92018290525093855250504260209384015250835460018101855593815220815191926002020190819061217690826140be565b506020820151816001015550508760078b8b6040516121969291906141cd565b908152602001604051809103902081905550868660068c8c6040516121bc9291906141cd565b908152602001604051809103902091826121d79291906141dc565b50848460098c8c6040516121ec9291906141cd565b908152602001604051809103902091826122079291906141dc565b50336001600160a01b03167feed1d9aeac219cfdbb0e954790128fda20008d428c716ff4d982f2218cb9c9ee8d8d8d8d604051612247949392919061419c565b60405180910390a2505050505050505050505050565b335f9081526003602090815260408083208054825181850281018501909352808352606094938301828280156122ba57602002820191905f5260205f20905b81546001600160a01b0316815260019091019060200180831161229c575b505050505090505f81516001600160401b038111156122db576122db613a52565b60405190808252806020026020018201604052801561231f57816020015b604080518082019091525f80825260208201528152602001906001900390816122f95790505b5090505f5b8251811015612413575f8382815181106123405761234061401a565b602090810291909101810151335f9081526001835260408082206001600160a01b03841683529093529182205490925060ff1680156123ca5750335f9081526002602090815260408083206001600160a01b038616845290915290205415806123ca5750335f9081526002602090815260408083206001600160a01b038616845290915290205442105b90506040518060400160405280836001600160a01b031681526020018215158152508484815181106123fe576123fe61401a565b60209081029190910101525050600101612324565b5092915050565b6001600160a01b0381165f9081526001602090815260408083203384529091528120546060919060ff16801561249b57506001600160a01b0383165f908152600260209081526040808320338452909152902054158061249b57506001600160a01b0383165f90815260026020908152604080832033845290915290205442105b90506001600160a01b0383163314806124b15750805b6124cd5760405162461bcd60e51b815260040161075090613fb1565b6001600160a01b0383165f9081526020818152604080832080548251818502810185019093528083529193909284015b82821015612662578382905f5260205f2090600302016040518060600160405290815f8201805461252d9061402e565b80601f01602080910402602001604051908101604052809291908181526020018280546125599061402e565b80156125a45780601f1061257b576101008083540402835291602001916125a4565b820191905f5260205f20905b81548152906001019060200180831161258757829003601f168201915b505050505081526020016001820180546125bd9061402e565b80601f01602080910402602001604051908101604052809291908181526020018280546125e99061402e565b80156126345780601f1061260b57610100808354040283529160200191612634565b820191905f5260205f20905b81548152906001019060200180831161261757829003601f168201915b5050509183525050600291909101546001600160a01b031660209182015290825260019290920191016124fd565b50505050915050919050565b5f8484604051602001612682929190614485565b60405160208183030381529060405290505f61269d826130da565b90505f6126df8286868080601f0160208091040260200160405190810160405280939291908181526020018383808284375f9201919091525061311492505050565b90506001600160a01b03811633146127515760405162461bcd60e51b815260206004820152602f60248201527f496e76616c6964207369676e61747572653a207369676e657220646f6573206e60448201526e37ba1036b0ba31b41039b2b73232b960891b6064820152608401610750565b335f90815260086020526040902061276a8789836141dc565b50336001600160a01b03167f68a2bebc02ae7d7f916c4941a8188a48f46cb1b0f5458403638cb1eb3ab30bf88888604051611e04929190614457565b335f908152602081815260409182902082516080601f8801849004909302810183019093526060830186815290929182919088908890819085018382808284375f92019190915250505090825250604080516020601f8701819004810282018101909252858152918101919086908690819084018382808284375f92018290525093855250503360209384015250835460018101855593815220815191926003020190819061285590826140be565b506020820151600182019061286a90826140be565b5060409182015160029190910180546001600160a01b0319166001600160a01b0390921691909117905551339081905f80516020614543833981519152906128b990889088908890889061419c565b60405180910390a350505050565b335f908152602081815260409182902082516080601f8d0184900490930281018301909352606083018b81529092918291908d908d90819085018382808284375f92019190915250505090825250604080516020601f8c018190048102820181019092528a815291810191908b908b90819084018382808284375f92018290525093855250503360209384015250835460018101855593815220815191926003020190819061297690826140be565b506020820151600182019061298b90826140be565b5060409182015160029190910180546001600160a01b0319166001600160a01b039092169190911790555185906007906129c8908c908c906141cd565b908152602001604051809103902081905550838360068b8b6040516129ee9291906141cd565b90815260200160405180910390209182612a099291906141dc565b50818160098b8b604051612a1e9291906141cd565b90815260200160405180910390209182612a399291906141dc565b50604051339081905f8051602061454383398151915290612a61908d908d908d908d9061419c565b60405180910390a3336001600160a01b03165f805160206145838339815191528a8a88604051612a9393929190614290565b60405180910390a2505050505050505050565b60605f600a8484604051612abb9291906141cd565b90815260200160405180910390208054612ad49061402e565b80601f0160208091040260200160405190810160405280929190818152602001828054612b009061402e565b8015612b4b5780601f10612b2257610100808354040283529160200191612b4b565b820191905f5260205f20905b815481529060010190602001808311612b2e57829003601f168201915b5050505050905080515f03612c02576040805160018082528183019092525f91816020015b60408051808201909152606081525f6020820152815260200190600190039081612b70579050506040805160606020601f89018190040282018101835291810187815292935091829188908890819085018382808284375f92018290525093855250505060209091018190528251839190612bed57612bed61401a565b60200260200101819052508092505050612d10565b600b81604051612c12919061446a565b9081526020016040518091039020805480602002602001604051908101604052809291908181526020015f905b82821015612d08578382905f5260205f2090600202016040518060400160405290815f82018054612c6f9061402e565b80601f0160208091040260200160405190810160405280929190818152602001828054612c9b9061402e565b8015612ce65780601f10612cbd57610100808354040283529160200191612ce6565b820191905f5260205f20905b815481529060010190602001808311612cc957829003601f168201915b5050505050815260200160018201548152505081526020019060010190612c3f565b505050509150505b92915050565b612d1e612fd6565b6001600160a01b038116612d4757604051631e4fbdf760e01b81525f6004820152602401610750565b612d5081613031565b50565b6001600160a01b0381165f908152600160209081526040808320338452909152812054819060ff168015612dd257506001600160a01b0383165f9081526002602090815260408083203384529091529020541580612dd257506001600160a01b0383165f90815260026020908152604080832033845290915290205442105b90506001600160a01b038316331480612de85750805b612e045760405162461bcd60e51b815260040161075090613fb1565b50506001600160a01b03165f9081526020819052604090205490565b306001600160a01b037f0000000000000000000000000000000000000000000000000000000000000000161480612ea657507f00000000000000000000000000000000000000000000000000000000000000006001600160a01b0316612e9a5f80516020614563833981519152546001600160a01b031690565b6001600160a01b031614155b1561169d5760405163703e46dd60e11b815260040160405180910390fd5b612d50612fd6565b816001600160a01b03166352d1902d6040518163ffffffff1660e01b8152600401602060405180830381865afa925050508015612f26575060408051601f3d908101601f19168201909252612f23918101906144bd565b60015b612f4e57604051634c9c8ce360e01b81526001600160a01b0383166004820152602401610750565b5f805160206145638339815191528114612f7e57604051632a87526960e21b815260048101829052602401610750565b612f88838361313c565b505050565b306001600160a01b037f0000000000000000000000000000000000000000000000000000000000000000161461169d5760405163703e46dd60e11b815260040160405180910390fd5b336130087f9016d09d72d40fdae2fd8ceac6b6234c7706214fd39c1cd1e609a0528c199300546001600160a01b031690565b6001600160a01b03161461169d5760405163118cdaa760e01b8152336004820152602401610750565b7f9016d09d72d40fdae2fd8ceac6b6234c7706214fd39c1cd1e609a0528c19930080546001600160a01b031981166001600160a01b03848116918217845560405192169182907f8be0079c531659141344cd1fd0a4f28419497f9722a3daafe3b4186f6b6457e0905f90a3505050565b5f807ff0c57e16840df040f15088dc2f81fe391c3923bec73e23a9662efc9c229c6a00612d10565b6130d1613191565b612d50816131b6565b5f6130e582516131be565b826040516020016130f79291906144d4565b604051602081830303815290604052805190602001209050919050565b5f805f80613122868661324d565b9250925092506131328282613296565b5090949350505050565b6131458261334e565b6040516001600160a01b038316907fbc7cd75a20ee27fd9adebab32041f755214dbc6bffa90cc0225b39da2e5c2d3b905f90a280511561318957612f8882826133b1565b61121661344a565b613199613469565b61169d57604051631afcd79f60e31b815260040160405180910390fd5b612d1e613191565b60605f6131ca83613482565b60010190505f816001600160401b038111156131e8576131e8613a52565b6040519080825280601f01601f191660200182016040528015613212576020820181803683370190505b5090508181016020015b5f19016f181899199a1a9b1b9c1cb0b131b232b360811b600a86061a8153600a850494508461321c57509392505050565b5f805f8351604103613284576020840151604085015160608601515f1a61327688828585613559565b95509550955050505061328f565b505081515f91506002905b9250925092565b5f8260038111156132a9576132a961452e565b036132b2575050565b60018260038111156132c6576132c661452e565b036132e45760405163f645eedf60e01b815260040160405180910390fd5b60028260038111156132f8576132f861452e565b036133195760405163fce698f760e01b815260048101829052602401610750565b600382600381111561332d5761332d61452e565b03611216576040516335e2f38360e21b815260048101829052602401610750565b806001600160a01b03163b5f0361338357604051634c9c8ce360e01b81526001600160a01b0382166004820152602401610750565b5f8051602061456383398151915280546001600160a01b0319166001600160a01b0392909216919091179055565b60605f6133be8484613621565b90508080156133df57505f3d11806133df57505f846001600160a01b03163b115b156133f4576133ec613634565b915050612d10565b801561341e57604051639996b31560e01b81526001600160a01b0385166004820152602401610750565b3d156134315761342c61364d565b612413565b60405163d6bda27560e01b815260040160405180910390fd5b341561169d5760405163b398979f60e01b815260040160405180910390fd5b5f6134726130a1565b54600160401b900460ff16919050565b5f8072184f03e93ff9f4daa797ed6e38ed64bf6a1f0160401b83106134c05772184f03e93ff9f4daa797ed6e38ed64bf6a1f0160401b830492506040015b6d04ee2d6d415b85acef810000000083106134ec576d04ee2d6d415b85acef8100000000830492506020015b662386f26fc10000831061350a57662386f26fc10000830492506010015b6305f5e1008310613522576305f5e100830492506008015b612710831061353657612710830492506004015b60648310613548576064830492506002015b600a8310612d105760010192915050565b5f80807f7fffffffffffffffffffffffffffffff5d576e7357a4501ddfe92f46681b20a084111561359257505f91506003905082613617565b604080515f808252602082018084528a905260ff891692820192909252606081018790526080810186905260019060a0016020604051602081039080840390855afa1580156135e3573d5f803e3d5ffd5b5050604051601f1901519150506001600160a01b03811661360e57505f925060019150829050613617565b92505f91508190505b9450945094915050565b5f805f835160208501865af49392505050565b6040513d81523d5f602083013e3d602001810160405290565b6040513d5f823e3d81fd5b5080546136649061402e565b5f825580601f10613673575050565b601f0160209004905f5260205f2090810190612d5091905b8082111561369e575f815560010161368b565b5090565b80356001600160a01b03811681146136b8575f80fd5b919050565b5f805f606084860312156136cf575f80fd5b6136d8846136a2565b95602085013595506040909401359392505050565b5f5b838110156137075781810151838201526020016136ef565b50505f910152565b5f81518084526137268160208601602086016136ed565b601f01601f19169290920160200192915050565b5f60208083018184528085518083526040925060408601915060408160051b8701018488015f5b838110156137c657603f198984030185528151606081518186526137878287018261370f565b915050888201518582038a87015261379f828261370f565b928901516001600160a01b0316958901959095525094870194925090860190600101613761565b509098975050505050505050565b5f8083601f8401126137e4575f80fd5b5081356001600160401b038111156137fa575f80fd5b602083019150836020828501011115613811575f80fd5b9250929050565b5f805f805f6060868803121561382c575f80fd5b613835866136a2565b945060208601356001600160401b0380821115613850575f80fd5b61385c89838a016137d4565b90965094506040880135915080821115613874575f80fd5b50613881888289016137d4565b969995985093965092949392505050565b5f805f805f805f805f8060c08b8d0312156138ab575f80fd5b6138b48b6136a2565b995060208b01356001600160401b03808211156138cf575f80fd5b6138db8e838f016137d4565b909b50995060408d01359150808211156138f3575f80fd5b6138ff8e838f016137d4565b909950975060608d0135965060808d013591508082111561391e575f80fd5b61392a8e838f016137d4565b909650945060a08d0135915080821115613942575f80fd5b5061394f8d828e016137d4565b915080935050809150509295989b9194979a5092959850565b5f8083601f840112613978575f80fd5b5081356001600160401b0381111561398e575f80fd5b6020830191508360208260051b8501011115613811575f80fd5b5f805f80604085870312156139bb575f80fd5b84356001600160401b03808211156139d1575f80fd5b6139dd88838901613968565b909650945060208701359150808211156139f5575f80fd5b50613a02878288016137d4565b95989497509550505050565b5f805f805f60608688031215613a22575f80fd5b613a2b866136a2565b945060208601356001600160401b0380821115613a46575f80fd5b61385c89838a01613968565b634e487b7160e01b5f52604160045260245ffd5b5f6001600160401b0380841115613a7f57613a7f613a52565b604051601f8501601f19908116603f01168101908282118183101715613aa757613aa7613a52565b81604052809350858152868686011115613abf575f80fd5b858560208301375f602087830101525050509392505050565b5f82601f830112613ae7575f80fd5b610a0783833560208501613a66565b5f60208284031215613b06575f80fd5b81356001600160401b03811115613b1b575f80fd5b613b2784828501613ad8565b949350505050565b602081525f610a07602083018461370f565b5f8060408385031215613b52575f80fd5b613b5b836136a2565b915060208301356001600160401b03811115613b75575f80fd5b8301601f81018513613b85575f80fd5b613b9485823560208401613a66565b9150509250929050565b5f60208284031215613bae575f80fd5b610a07826136a2565b5f8060408385031215613bc8575f80fd5b613bd1836136a2565b946020939093013593505050565b5f805f805f805f8060a0898b031215613bf6575f80fd5b613bff896136a2565b975060208901356001600160401b0380821115613c1a575f80fd5b613c268c838d016137d4565b909950975060408b0135915080821115613c3e575f80fd5b613c4a8c838d016137d4565b909750955060608b0135945060808b0135915080821115613c69575f80fd5b50613c768b828c016137d4565b999c989b5096995094979396929594505050565b5f8060408385031215613c9b575f80fd5b613ca4836136a2565b9150613cb2602084016136a2565b90509250929050565b5f8060408385031215613ccc575f80fd5b82356001600160401b03811115613ce1575f80fd5b613ced85828601613ad8565b95602094909401359450505050565b604081525f613d0e604083018561370f565b90508260208301529392505050565b5f8060208385031215613d2e575f80fd5b82356001600160401b03811115613d43575f80fd5b613d4f858286016137d4565b90969095509350505050565b5f805f805f805f6080888a031215613d71575f80fd5b87356001600160401b0380821115613d87575f80fd5b613d938b838c016137d4565b909950975060208a0135915080821115613dab575f80fd5b613db78b838c016137d4565b909750955060408a0135945060608a0135915080821115613dd6575f80fd5b50613de38a828b016137d4565b989b979a50959850939692959293505050565b5f805f805f805f805f60a08a8c031215613e0e575f80fd5b89356001600160401b0380821115613e24575f80fd5b613e308d838e016137d4565b909b50995060208c0135915080821115613e48575f80fd5b613e548d838e016137d4565b909950975060408c0135965060608c0135915080821115613e73575f80fd5b613e7f8d838e016137d4565b909650945060808c0135915080821115613e97575f80fd5b50613ea48c828d016137d4565b915080935050809150509295985092959850929598565b602080825282518282018190525f919060409081850190868401855b82811015613f0757815180516001600160a01b031685528601511515868501529284019290850190600101613ed7565b5091979650505050505050565b5f805f8060408587031215613f27575f80fd5b84356001600160401b0380821115613f3d575f80fd5b6139dd888389016137d4565b5f60208083018184528085518083526040925060408601915060408160051b8701018488015f5b838110156137c657888303603f1901855281518051878552613f948886018261370f565b918901519489019490945294870194925090860190600101613f70565b602080825260159082015274596f7520646f6e277420686176652061636365737360581b604082015260600190565b634e487b7160e01b5f52601160045260245ffd5b80820180821115612d1057612d10613fe0565b81810381811115612d1057612d10613fe0565b634e487b7160e01b5f52603260045260245ffd5b600181811c9082168061404257607f821691505b60208210810361406057634e487b7160e01b5f52602260045260245ffd5b50919050565b601f821115612f8857805f5260205f20601f840160051c8101602085101561408b5750805b601f840160051c820191505b81811015610f61575f8155600101614097565b5f19600383901b1c191660019190911b1790565b81516001600160401b038111156140d7576140d7613a52565b6140eb816140e5845461402e565b84614066565b602080601f831160018114614119575f84156141075750858301515b61411185826140aa565b865550611150565b5f85815260208120601f198616915b8281101561414757888601518255948401946001909101908401614128565b508582101561416457878501515f19600388901b60f8161c191681555b5050505050600190811b01905550565b81835281816020850137505f828201602090810191909152601f909101601f19169091010190565b604081525f6141af604083018688614174565b82810360208401526141c2818587614174565b979650505050505050565b818382375f9101908152919050565b6001600160401b038311156141f3576141f3613a52565b61420783614201835461402e565b83614066565b5f601f841160018114614233575f85156142215750838201355b61422b86826140aa565b845550610f61565b5f83815260208120601f198716915b828110156142625786850135825560209485019460019092019101614242565b508682101561427e575f1960f88860031b161c19848701351681555b505060018560011b0183555050505050565b604081525f6142a3604083018587614174565b9050826020830152949350505050565b5f808335601e198436030181126142c8575f80fd5b8301803591506001600160401b038211156142e1575f80fd5b602001915036819003821315613811575f80fd5b8082028115828204841417612d1057612d10613fe0565b5f8083546143198161402e565b60018281168015614331576001811461434657614372565b60ff1984168752821515830287019450614372565b875f526020805f205f5b858110156143695781548a820152908401908201614350565b50505082870194505b50929695505050505050565b818103614389575050565b614393825461402e565b6001600160401b038111156143aa576143aa613a52565b6143b8816140e5845461402e565b5f601f8211600181146143e4575f83156143d25750848201545b6143dc84826140aa565b855550610f61565b5f8581526020808220868352908220601f198616925b8381101561441a57828601548255600195860195909101906020016143fa565b5085831015614164579301545f1960f8600387901b161c19169092555050600190811b01905550565b634e487b7160e01b5f52603160045260245ffd5b602081525f613b27602083018486614174565b5f825161447b8184602087016136ed565b9190910192915050565b7f436f6e6669726d2045324545205075626c6963204b65793a20000000000000008152818360198301375f9101601901908152919050565b5f602082840312156144cd575f80fd5b5051919050565b7f19457468657265756d205369676e6564204d6573736167653a0a00000000000081525f835161450b81601a8501602088016136ed565b83519083019061452281601a8401602088016136ed565b01601a01949350505050565b634e487b7160e01b5f52602160045260245ffdfee0f76fb99d0fdcc765fe6a79952945f024346ab3418e7d8cc9eed19185d31d4c360894a13ba1a3210667c828492db98dca3e2076cc3735a920a3ca505d382bbc405aa9f544034efa22d1924de4ffaaaedf71ef4e579ad1b5da738a24930e3a59a264697066735822122065f4ed2514b76de64a4702353abd0827ef366d37142a2f40462161c065149c0c64736f6c63430008180033",
  "linkReferences": {},
  "deployedLinkReferences": {}
}